{
	"Pollingsystem.sol": {
		"PollingSystem": {
			"abi": [
				{
					"anonymous": false,
					"inputs": [
						{
							"indexed": false,
							"internalType": "uint256",
							"name": "pollId",
							"type": "uint256"
						},
						{
							"indexed": false,
							"internalType": "string",
							"name": "title",
							"type": "string"
						},
						{
							"indexed": false,
							"internalType": "uint256",
							"name": "endTime",
							"type": "uint256"
						}
					],
					"name": "PollCreated",
					"type": "event"
				},
				{
					"inputs": [
						{
							"internalType": "string",
							"name": "_title",
							"type": "string"
						},
						{
							"internalType": "string[]",
							"name": "_options",
							"type": "string[]"
						},
						{
							"internalType": "uint256",
							"name": "_durationMinutes",
							"type": "uint256"
						}
					],
					"name": "createPoll",
					"outputs": [],
					"stateMutability": "nonpayable",
					"type": "function"
				},
				{
					"inputs": [
						{
							"internalType": "uint256",
							"name": "_pollId",
							"type": "uint256"
						}
					],
					"name": "getPollDetails",
					"outputs": [
						{
							"internalType": "string",
							"name": "title",
							"type": "string"
						},
						{
							"internalType": "string[]",
							"name": "options",
							"type": "string[]"
						},
						{
							"internalType": "uint256",
							"name": "endTime",
							"type": "uint256"
						}
					],
					"stateMutability": "view",
					"type": "function"
				},
				{
					"inputs": [
						{
							"internalType": "uint256",
							"name": "_pollId",
							"type": "uint256"
						}
					],
					"name": "getVoteCounts",
					"outputs": [
						{
							"internalType": "uint256[]",
							"name": "counts",
							"type": "uint256[]"
						}
					],
					"stateMutability": "view",
					"type": "function"
				},
				{
					"inputs": [
						{
							"internalType": "uint256",
							"name": "_pollId",
							"type": "uint256"
						}
					],
					"name": "getWinningOption",
					"outputs": [
						{
							"internalType": "string",
							"name": "winningOption",
							"type": "string"
						}
					],
					"stateMutability": "view",
					"type": "function"
				},
				{
					"inputs": [],
					"name": "pollCount",
					"outputs": [
						{
							"internalType": "uint256",
							"name": "",
							"type": "uint256"
						}
					],
					"stateMutability": "view",
					"type": "function"
				},
				{
					"inputs": [
						{
							"internalType": "uint256",
							"name": "_pollId",
							"type": "uint256"
						},
						{
							"internalType": "uint256",
							"name": "_optionIndex",
							"type": "uint256"
						}
					],
					"name": "vote",
					"outputs": [],
					"stateMutability": "nonpayable",
					"type": "function"
				}
			],
			"devdoc": {
				"kind": "dev",
				"methods": {},
				"version": 1
			},
			"evm": {
				"assembly": "    /* \"Pollingsystem.sol\":60:3018  contract PollingSystem {... */\n  mstore(0x40, 0x80)\n    /* \"Pollingsystem.sol\":325:326  0 */\n  0x00\n    /* \"Pollingsystem.sol\":301:326  uint public pollCount = 0 */\n  0x00\n  sstore\n    /* \"Pollingsystem.sol\":60:3018  contract PollingSystem {... */\n  callvalue\n  dup1\n  iszero\n  tag_1\n  jumpi\n  revert(0x00, 0x00)\ntag_1:\n  pop\n  dataSize(sub_0)\n  dup1\n  dataOffset(sub_0)\n  0x00\n  codecopy\n  0x00\n  return\nstop\n\nsub_0: assembly {\n        /* \"Pollingsystem.sol\":60:3018  contract PollingSystem {... */\n      mstore(0x40, 0x80)\n      callvalue\n      dup1\n      iszero\n      tag_1\n      jumpi\n      revert(0x00, 0x00)\n    tag_1:\n      pop\n      jumpi(tag_2, lt(calldatasize, 0x04))\n      shr(0xe0, calldataload(0x00))\n      dup1\n      0x8a241f4c\n      eq\n      tag_3\n      jumpi\n      dup1\n      0x9207891d\n      eq\n      tag_4\n      jumpi\n      dup1\n      0x9a0040e4\n      eq\n      tag_5\n      jumpi\n      dup1\n      0xa6286870\n      eq\n      tag_6\n      jumpi\n      dup1\n      0xb384abef\n      eq\n      tag_7\n      jumpi\n      dup1\n      0xf8c860f4\n      eq\n      tag_8\n      jumpi\n    tag_2:\n      revert(0x00, 0x00)\n        /* \"Pollingsystem.sol\":1979:2380  function getVoteCounts(uint _pollId) external view returns (uint[] memory counts) {... */\n    tag_3:\n      tag_9\n      tag_10\n      calldatasize\n      0x04\n      tag_11\n      jump\t// in\n    tag_10:\n      tag_12\n      jump\t// in\n    tag_9:\n      mload(0x40)\n      tag_13\n      swap2\n      swap1\n      tag_14\n      jump\t// in\n    tag_13:\n      mload(0x40)\n      dup1\n      swap2\n      sub\n      swap1\n      return\n        /* \"Pollingsystem.sol\":301:326  uint public pollCount = 0 */\n    tag_4:\n      tag_15\n      sload(0x00)\n      dup2\n      jump\n    tag_15:\n      mload(0x40)\n        /* \"#utility.yul\":1007:1032   */\n      swap1\n      dup2\n      mstore\n        /* \"#utility.yul\":995:997   */\n      0x20\n        /* \"#utility.yul\":980:998   */\n      add\n        /* \"Pollingsystem.sol\":301:326  uint public pollCount = 0 */\n      tag_13\n        /* \"#utility.yul\":861:1038   */\n      jump\n        /* \"Pollingsystem.sol\":1651:1942  function getPollDetails(uint _pollId) external view returns (string memory title, string[] memory options, uint endTime) {... */\n    tag_5:\n      tag_19\n      tag_20\n      calldatasize\n      0x04\n      tag_11\n      jump\t// in\n    tag_20:\n      tag_21\n      jump\t// in\n    tag_19:\n      mload(0x40)\n      tag_13\n      swap4\n      swap3\n      swap2\n      swap1\n      tag_23\n      jump\t// in\n        /* \"Pollingsystem.sol\":2419:3015  function getWinningOption(uint _pollId) external view returns (string memory winningOption) {... */\n    tag_6:\n      tag_24\n      tag_25\n      calldatasize\n      0x04\n      tag_11\n      jump\t// in\n    tag_25:\n      tag_26\n      jump\t// in\n    tag_24:\n      mload(0x40)\n      tag_13\n      swap2\n      swap1\n      tag_28\n      jump\t// in\n        /* \"Pollingsystem.sol\":1117:1587  function vote(uint _pollId, uint _optionIndex) external {... */\n    tag_7:\n      tag_29\n      tag_30\n      calldatasize\n      0x04\n      tag_31\n      jump\t// in\n    tag_30:\n      tag_32\n      jump\t// in\n    tag_29:\n      stop\n        /* \"Pollingsystem.sol\":506:1072  function createPoll(string memory _title, string[] memory _options, uint _durationMinutes) external {... */\n    tag_8:\n      tag_29\n      tag_34\n      calldatasize\n      0x04\n      tag_35\n      jump\t// in\n    tag_34:\n      tag_36\n      jump\t// in\n        /* \"Pollingsystem.sol\":1979:2380  function getVoteCounts(uint _pollId) external view returns (uint[] memory counts) {... */\n    tag_12:\n        /* \"Pollingsystem.sol\":2080:2094  polls[_pollId] */\n      0x00\n      dup2\n      dup2\n      mstore\n        /* \"Pollingsystem.sol\":2080:2085  polls */\n      0x01\n        /* \"Pollingsystem.sol\":2080:2094  polls[_pollId] */\n      0x20\n      mstore\n      0x40\n      swap1\n      keccak256\n        /* \"Pollingsystem.sol\":2080:2101  polls[_pollId].exists */\n      0x05\n      add\n      sload\n        /* \"Pollingsystem.sol\":2039:2059  uint[] memory counts */\n      0x60\n      swap1\n        /* \"Pollingsystem.sol\":2080:2101  polls[_pollId].exists */\n      0xff\n      and\n        /* \"Pollingsystem.sol\":2072:2120  require(polls[_pollId].exists, \"Poll not found\") */\n      tag_38\n      jumpi\n      mload(0x40)\n      shl(0xe5, 0x461bcd)\n      dup2\n      mstore\n      0x04\n      add\n      tag_39\n      swap1\n      tag_40\n      jump\t// in\n    tag_39:\n      mload(0x40)\n      dup1\n      swap2\n      sub\n      swap1\n      revert\n    tag_38:\n        /* \"Pollingsystem.sol\":2131:2148  Poll storage poll */\n      0x00\n        /* \"Pollingsystem.sol\":2151:2165  polls[_pollId] */\n      dup3\n      dup2\n      mstore\n        /* \"Pollingsystem.sol\":2151:2156  polls */\n      0x01\n        /* \"Pollingsystem.sol\":2151:2165  polls[_pollId] */\n      0x20\n      dup2\n      swap1\n      mstore\n      0x40\n      dup3\n      keccak256\n        /* \"Pollingsystem.sol\":2213:2225  poll.options */\n      swap1\n      dup2\n      add\n        /* \"Pollingsystem.sol\":2213:2232  poll.options.length */\n      sload\n        /* \"Pollingsystem.sol\":2151:2165  polls[_pollId] */\n      swap1\n      swap2\n        /* \"Pollingsystem.sol\":2131:2148  Poll storage poll */\n      swap1\n        /* \"Pollingsystem.sol\":2202:2233  new uint[](poll.options.length) */\n      0xffffffffffffffff\n      dup2\n      gt\n      iszero\n      tag_42\n      jumpi\n      tag_42\n      tag_43\n      jump\t// in\n    tag_42:\n      mload(0x40)\n      swap1\n      dup1\n      dup3\n      mstore\n      dup1\n      0x20\n      mul\n      0x20\n      add\n      dup3\n      add\n      0x40\n      mstore\n      dup1\n      iszero\n      tag_44\n      jumpi\n      dup2\n      0x20\n      add\n      0x20\n      dup3\n      mul\n      dup1\n      calldatasize\n      dup4\n      calldatacopy\n      add\n      swap1\n      pop\n    tag_44:\n      pop\n        /* \"Pollingsystem.sol\":2178:2233  uint[] memory results = new uint[](poll.options.length) */\n      swap1\n      pop\n        /* \"Pollingsystem.sol\":2249:2255  uint i */\n      0x00\n        /* \"Pollingsystem.sol\":2244:2348  for (uint i = 0; i < poll.options.length; i++) {... */\n    tag_45:\n        /* \"Pollingsystem.sol\":2265:2277  poll.options */\n      0x01\n      dup4\n      add\n        /* \"Pollingsystem.sol\":2265:2284  poll.options.length */\n      sload\n        /* \"Pollingsystem.sol\":2261:2284  i < poll.options.length */\n      dup2\n      lt\n        /* \"Pollingsystem.sol\":2244:2348  for (uint i = 0; i < poll.options.length; i++) {... */\n      iszero\n      tag_46\n      jumpi\n        /* \"Pollingsystem.sol\":2319:2336  poll.voteCount[i] */\n      0x00\n      dup2\n      dup2\n      mstore\n        /* \"Pollingsystem.sol\":2319:2333  poll.voteCount */\n      0x03\n      dup5\n      add\n        /* \"Pollingsystem.sol\":2319:2336  poll.voteCount[i] */\n      0x20\n      mstore\n      0x40\n      swap1\n      keccak256\n      sload\n        /* \"Pollingsystem.sol\":2306:2316  results[i] */\n      dup3\n      mload\n        /* \"Pollingsystem.sol\":2306:2313  results */\n      dup4\n      swap1\n        /* \"Pollingsystem.sol\":2334:2335  i */\n      dup4\n      swap1\n        /* \"Pollingsystem.sol\":2306:2316  results[i] */\n      dup2\n      lt\n      tag_49\n      jumpi\n      tag_49\n      tag_50\n      jump\t// in\n    tag_49:\n      0x20\n      swap1\n      dup2\n      mul\n      swap2\n      swap1\n      swap2\n      add\n      add\n        /* \"Pollingsystem.sol\":2306:2336  results[i] = poll.voteCount[i] */\n      mstore\n        /* \"Pollingsystem.sol\":2286:2289  i++ */\n      0x01\n      add\n        /* \"Pollingsystem.sol\":2244:2348  for (uint i = 0; i < poll.options.length; i++) {... */\n      jump(tag_45)\n    tag_46:\n      pop\n        /* \"Pollingsystem.sol\":2365:2372  results */\n      swap4\n        /* \"Pollingsystem.sol\":1979:2380  function getVoteCounts(uint _pollId) external view returns (uint[] memory counts) {... */\n      swap3\n      pop\n      pop\n      pop\n      jump\t// out\n        /* \"Pollingsystem.sol\":1651:1942  function getPollDetails(uint _pollId) external view returns (string memory title, string[] memory options, uint endTime) {... */\n    tag_21:\n        /* \"Pollingsystem.sol\":1758:1770  uint endTime */\n      0x00\n        /* \"Pollingsystem.sol\":1791:1805  polls[_pollId] */\n      dup2\n      dup2\n      mstore\n        /* \"Pollingsystem.sol\":1791:1796  polls */\n      0x01\n        /* \"Pollingsystem.sol\":1791:1805  polls[_pollId] */\n      0x20\n      mstore\n      0x40\n      dup2\n      keccak256\n        /* \"Pollingsystem.sol\":1791:1812  polls[_pollId].exists */\n      0x05\n      add\n      sload\n        /* \"Pollingsystem.sol\":1712:1731  string memory title */\n      0x60\n      swap2\n      dup3\n      swap2\n        /* \"Pollingsystem.sol\":1791:1812  polls[_pollId].exists */\n      0xff\n      and\n        /* \"Pollingsystem.sol\":1783:1831  require(polls[_pollId].exists, \"Poll not found\") */\n      tag_52\n      jumpi\n      mload(0x40)\n      shl(0xe5, 0x461bcd)\n      dup2\n      mstore\n      0x04\n      add\n      tag_39\n      swap1\n      tag_40\n      jump\t// in\n    tag_52:\n        /* \"Pollingsystem.sol\":1842:1859  Poll storage poll */\n      0x00\n        /* \"Pollingsystem.sol\":1862:1867  polls */\n      0x01\n        /* \"Pollingsystem.sol\":1862:1876  polls[_pollId] */\n      0x00\n        /* \"Pollingsystem.sol\":1868:1875  _pollId */\n      dup7\n        /* \"Pollingsystem.sol\":1862:1876  polls[_pollId] */\n      dup2\n      mstore\n      0x20\n      add\n      swap1\n      dup2\n      mstore\n      0x20\n      add\n      0x00\n      keccak256\n        /* \"Pollingsystem.sol\":1842:1876  Poll storage poll = polls[_pollId] */\n      swap1\n      pop\n        /* \"Pollingsystem.sol\":1895:1899  poll */\n      dup1\n        /* \"Pollingsystem.sol\":1895:1905  poll.title */\n      0x00\n      add\n        /* \"Pollingsystem.sol\":1907:1911  poll */\n      dup2\n        /* \"Pollingsystem.sol\":1907:1919  poll.options */\n      0x01\n      add\n        /* \"Pollingsystem.sol\":1921:1925  poll */\n      dup3\n        /* \"Pollingsystem.sol\":1921:1933  poll.endTime */\n      0x02\n      add\n      sload\n        /* \"Pollingsystem.sol\":1887:1934  return (poll.title, poll.options, poll.endTime) */\n      dup3\n      dup1\n      sload\n      tag_54\n      swap1\n      tag_55\n      jump\t// in\n    tag_54:\n      dup1\n      0x1f\n      add\n      0x20\n      dup1\n      swap2\n      div\n      mul\n      0x20\n      add\n      mload(0x40)\n      swap1\n      dup2\n      add\n      0x40\n      mstore\n      dup1\n      swap3\n      swap2\n      swap1\n      dup2\n      dup2\n      mstore\n      0x20\n      add\n      dup3\n      dup1\n      sload\n      tag_56\n      swap1\n      tag_55\n      jump\t// in\n    tag_56:\n      dup1\n      iszero\n      tag_57\n      jumpi\n      dup1\n      0x1f\n      lt\n      tag_58\n      jumpi\n      0x0100\n      dup1\n      dup4\n      sload\n      div\n      mul\n      dup4\n      mstore\n      swap2\n      0x20\n      add\n      swap2\n      jump(tag_57)\n    tag_58:\n      dup3\n      add\n      swap2\n      swap1\n      0x00\n      mstore\n      keccak256(0x00, 0x20)\n      swap1\n    tag_59:\n      dup2\n      sload\n      dup2\n      mstore\n      swap1\n      0x01\n      add\n      swap1\n      0x20\n      add\n      dup1\n      dup4\n      gt\n      tag_59\n      jumpi\n      dup3\n      swap1\n      sub\n      0x1f\n      and\n      dup3\n      add\n      swap2\n    tag_57:\n      pop\n      pop\n      pop\n      pop\n      pop\n      swap3\n      pop\n      dup2\n      dup1\n      sload\n      dup1\n      0x20\n      mul\n      0x20\n      add\n      mload(0x40)\n      swap1\n      dup2\n      add\n      0x40\n      mstore\n      dup1\n      swap3\n      swap2\n      swap1\n      dup2\n      dup2\n      mstore\n      0x20\n      add\n      0x00\n      swap1\n    tag_60:\n      dup3\n      dup3\n      lt\n      iszero\n      tag_61\n      jumpi\n      dup4\n      dup3\n      swap1\n      0x00\n      mstore\n      keccak256(0x00, 0x20)\n      add\n      dup1\n      sload\n      tag_63\n      swap1\n      tag_55\n      jump\t// in\n    tag_63:\n      dup1\n      0x1f\n      add\n      0x20\n      dup1\n      swap2\n      div\n      mul\n      0x20\n      add\n      mload(0x40)\n      swap1\n      dup2\n      add\n      0x40\n      mstore\n      dup1\n      swap3\n      swap2\n      swap1\n      dup2\n      dup2\n      mstore\n      0x20\n      add\n      dup3\n      dup1\n      sload\n      tag_64\n      swap1\n      tag_55\n      jump\t// in\n    tag_64:\n      dup1\n      iszero\n      tag_65\n      jumpi\n      dup1\n      0x1f\n      lt\n      tag_66\n      jumpi\n      0x0100\n      dup1\n      dup4\n      sload\n      div\n      mul\n      dup4\n      mstore\n      swap2\n      0x20\n      add\n      swap2\n      jump(tag_65)\n    tag_66:\n      dup3\n      add\n      swap2\n      swap1\n      0x00\n      mstore\n      keccak256(0x00, 0x20)\n      swap1\n    tag_67:\n      dup2\n      sload\n      dup2\n      mstore\n      swap1\n      0x01\n      add\n      swap1\n      0x20\n      add\n      dup1\n      dup4\n      gt\n      tag_67\n      jumpi\n      dup3\n      swap1\n      sub\n      0x1f\n      and\n      dup3\n      add\n      swap2\n    tag_65:\n      pop\n      pop\n      pop\n      pop\n      pop\n      dup2\n      mstore\n      0x20\n      add\n      swap1\n      0x01\n      add\n      swap1\n      jump(tag_60)\n    tag_61:\n      pop\n      pop\n      pop\n      pop\n      swap2\n      pop\n      swap4\n      pop\n      swap4\n      pop\n      swap4\n      pop\n      pop\n        /* \"Pollingsystem.sol\":1651:1942  function getPollDetails(uint _pollId) external view returns (string memory title, string[] memory options, uint endTime) {... */\n      swap2\n      swap4\n      swap1\n      swap3\n      pop\n      jump\t// out\n        /* \"Pollingsystem.sol\":2419:3015  function getWinningOption(uint _pollId) external view returns (string memory winningOption) {... */\n    tag_26:\n        /* \"Pollingsystem.sol\":2530:2544  polls[_pollId] */\n      0x00\n      dup2\n      dup2\n      mstore\n        /* \"Pollingsystem.sol\":2530:2535  polls */\n      0x01\n        /* \"Pollingsystem.sol\":2530:2544  polls[_pollId] */\n      0x20\n      mstore\n      0x40\n      swap1\n      keccak256\n        /* \"Pollingsystem.sol\":2530:2551  polls[_pollId].exists */\n      0x05\n      add\n      sload\n        /* \"Pollingsystem.sol\":2482:2509  string memory winningOption */\n      0x60\n      swap1\n        /* \"Pollingsystem.sol\":2530:2551  polls[_pollId].exists */\n      0xff\n      and\n        /* \"Pollingsystem.sol\":2522:2570  require(polls[_pollId].exists, \"Poll not found\") */\n      tag_69\n      jumpi\n      mload(0x40)\n      shl(0xe5, 0x461bcd)\n      dup2\n      mstore\n      0x04\n      add\n      tag_39\n      swap1\n      tag_40\n      jump\t// in\n    tag_69:\n        /* \"Pollingsystem.sol\":2581:2598  Poll storage poll */\n      0x00\n        /* \"Pollingsystem.sol\":2601:2615  polls[_pollId] */\n      dup3\n      dup2\n      mstore\n        /* \"Pollingsystem.sol\":2601:2606  polls */\n      0x01\n        /* \"Pollingsystem.sol\":2601:2615  polls[_pollId] */\n      0x20\n      mstore\n      0x40\n      swap1\n      keccak256\n        /* \"Pollingsystem.sol\":2652:2664  poll.endTime */\n      0x02\n      dup2\n      add\n      sload\n        /* \"Pollingsystem.sol\":2634:2649  block.timestamp */\n      timestamp\n        /* \"Pollingsystem.sol\":2634:2664  block.timestamp > poll.endTime */\n      gt\n        /* \"Pollingsystem.sol\":2626:2686  require(block.timestamp > poll.endTime, \"Poll still active\") */\n      tag_71\n      jumpi\n      mload(0x40)\n      shl(0xe5, 0x461bcd)\n      dup2\n      mstore\n        /* \"#utility.yul\":6372:6374   */\n      0x20\n        /* \"Pollingsystem.sol\":2626:2686  require(block.timestamp > poll.endTime, \"Poll still active\") */\n      0x04\n      dup3\n      add\n        /* \"#utility.yul\":6354:6375   */\n      mstore\n        /* \"#utility.yul\":6411:6413   */\n      0x11\n        /* \"#utility.yul\":6391:6409   */\n      0x24\n      dup3\n      add\n        /* \"#utility.yul\":6384:6414   */\n      mstore\n      shl(0x78, 0x506f6c6c207374696c6c20616374697665)\n        /* \"#utility.yul\":6430:6448   */\n      0x44\n      dup3\n      add\n        /* \"#utility.yul\":6423:6470   */\n      mstore\n        /* \"#utility.yul\":6487:6505   */\n      0x64\n      add\n        /* \"Pollingsystem.sol\":2626:2686  require(block.timestamp > poll.endTime, \"Poll still active\") */\n      tag_39\n        /* \"#utility.yul\":6170:6511   */\n      jump\n        /* \"Pollingsystem.sol\":2626:2686  require(block.timestamp > poll.endTime, \"Poll still active\") */\n    tag_71:\n        /* \"Pollingsystem.sol\":2699:2712  uint maxVotes */\n      0x00\n      dup1\n      dup1\n        /* \"Pollingsystem.sol\":2759:2964  for (uint i = 0; i < poll.options.length; i++) {... */\n    tag_74:\n        /* \"Pollingsystem.sol\":2780:2792  poll.options */\n      0x01\n      dup5\n      add\n        /* \"Pollingsystem.sol\":2780:2799  poll.options.length */\n      sload\n        /* \"Pollingsystem.sol\":2776:2799  i < poll.options.length */\n      dup2\n      lt\n        /* \"Pollingsystem.sol\":2759:2964  for (uint i = 0; i < poll.options.length; i++) {... */\n      iszero\n      tag_75\n      jumpi\n        /* \"Pollingsystem.sol\":2825:2842  poll.voteCount[i] */\n      0x00\n      dup2\n      dup2\n      mstore\n        /* \"Pollingsystem.sol\":2825:2839  poll.voteCount */\n      0x03\n      dup6\n      add\n        /* \"Pollingsystem.sol\":2825:2842  poll.voteCount[i] */\n      0x20\n      mstore\n      0x40\n      swap1\n      keccak256\n      sload\n        /* \"Pollingsystem.sol\":2825:2853  poll.voteCount[i] > maxVotes */\n      dup4\n      lt\n        /* \"Pollingsystem.sol\":2821:2953  if (poll.voteCount[i] > maxVotes) {... */\n      iszero\n      tag_77\n      jumpi\n        /* \"Pollingsystem.sol\":2885:2902  poll.voteCount[i] */\n      0x00\n      dup2\n      dup2\n      mstore\n        /* \"Pollingsystem.sol\":2885:2899  poll.voteCount */\n      0x03\n      dup6\n      add\n        /* \"Pollingsystem.sol\":2885:2902  poll.voteCount[i] */\n      0x20\n      mstore\n      0x40\n      swap1\n      keccak256\n      sload\n      swap3\n      pop\n        /* \"Pollingsystem.sol\":2900:2901  i */\n      swap1\n      pop\n      dup1\n        /* \"Pollingsystem.sol\":2821:2953  if (poll.voteCount[i] > maxVotes) {... */\n    tag_77:\n        /* \"Pollingsystem.sol\":2801:2804  i++ */\n      0x01\n      add\n        /* \"Pollingsystem.sol\":2759:2964  for (uint i = 0; i < poll.options.length; i++) {... */\n      jump(tag_74)\n    tag_75:\n      pop\n        /* \"Pollingsystem.sol\":2981:2985  poll */\n      dup3\n        /* \"Pollingsystem.sol\":2981:2993  poll.options */\n      0x01\n      add\n        /* \"Pollingsystem.sol\":2994:3006  winningIndex */\n      dup2\n        /* \"Pollingsystem.sol\":2981:3007  poll.options[winningIndex] */\n      dup2\n      sload\n      dup2\n      lt\n      tag_79\n      jumpi\n      tag_79\n      tag_50\n      jump\t// in\n    tag_79:\n      swap1\n      0x00\n      mstore\n      keccak256(0x00, 0x20)\n      add\n        /* \"Pollingsystem.sol\":2974:3007  return poll.options[winningIndex] */\n      dup1\n      sload\n      tag_81\n      swap1\n      tag_55\n      jump\t// in\n    tag_81:\n      dup1\n      0x1f\n      add\n      0x20\n      dup1\n      swap2\n      div\n      mul\n      0x20\n      add\n      mload(0x40)\n      swap1\n      dup2\n      add\n      0x40\n      mstore\n      dup1\n      swap3\n      swap2\n      swap1\n      dup2\n      dup2\n      mstore\n      0x20\n      add\n      dup3\n      dup1\n      sload\n      tag_82\n      swap1\n      tag_55\n      jump\t// in\n    tag_82:\n      dup1\n      iszero\n      tag_83\n      jumpi\n      dup1\n      0x1f\n      lt\n      tag_84\n      jumpi\n      0x0100\n      dup1\n      dup4\n      sload\n      div\n      mul\n      dup4\n      mstore\n      swap2\n      0x20\n      add\n      swap2\n      jump(tag_83)\n    tag_84:\n      dup3\n      add\n      swap2\n      swap1\n      0x00\n      mstore\n      keccak256(0x00, 0x20)\n      swap1\n    tag_85:\n      dup2\n      sload\n      dup2\n      mstore\n      swap1\n      0x01\n      add\n      swap1\n      0x20\n      add\n      dup1\n      dup4\n      gt\n      tag_85\n      jumpi\n      dup3\n      swap1\n      sub\n      0x1f\n      and\n      dup3\n      add\n      swap2\n    tag_83:\n      pop\n      pop\n      pop\n      pop\n      pop\n      swap4\n      pop\n      pop\n      pop\n      pop\n        /* \"Pollingsystem.sol\":2419:3015  function getWinningOption(uint _pollId) external view returns (string memory winningOption) {... */\n      swap2\n      swap1\n      pop\n      jump\t// out\n        /* \"Pollingsystem.sol\":1117:1587  function vote(uint _pollId, uint _optionIndex) external {... */\n    tag_32:\n        /* \"Pollingsystem.sol\":1202:1211  pollCount */\n      sload(0x00)\n        /* \"Pollingsystem.sol\":1192:1199  _pollId */\n      dup3\n        /* \"Pollingsystem.sol\":1192:1211  _pollId < pollCount */\n      lt\n        /* \"Pollingsystem.sol\":1184:1234  require(_pollId < pollCount, \"Poll doesn't exist\") */\n      tag_87\n      jumpi\n      mload(0x40)\n      shl(0xe5, 0x461bcd)\n      dup2\n      mstore\n        /* \"#utility.yul\":6718:6720   */\n      0x20\n        /* \"Pollingsystem.sol\":1184:1234  require(_pollId < pollCount, \"Poll doesn't exist\") */\n      0x04\n      dup3\n      add\n        /* \"#utility.yul\":6700:6721   */\n      mstore\n        /* \"#utility.yul\":6757:6759   */\n      0x12\n        /* \"#utility.yul\":6737:6755   */\n      0x24\n      dup3\n      add\n        /* \"#utility.yul\":6730:6760   */\n      mstore\n      shl(0x72, 0x141bdb1b08191bd95cdb89dd08195e1a5cdd)\n        /* \"#utility.yul\":6776:6794   */\n      0x44\n      dup3\n      add\n        /* \"#utility.yul\":6769:6817   */\n      mstore\n        /* \"#utility.yul\":6834:6852   */\n      0x64\n      add\n        /* \"Pollingsystem.sol\":1184:1234  require(_pollId < pollCount, \"Poll doesn't exist\") */\n      tag_39\n        /* \"#utility.yul\":6516:6858   */\n      jump\n        /* \"Pollingsystem.sol\":1184:1234  require(_pollId < pollCount, \"Poll doesn't exist\") */\n    tag_87:\n        /* \"Pollingsystem.sol\":1245:1262  Poll storage poll */\n      0x00\n        /* \"Pollingsystem.sol\":1265:1279  polls[_pollId] */\n      dup3\n      dup2\n      mstore\n        /* \"Pollingsystem.sol\":1265:1270  polls */\n      0x01\n        /* \"Pollingsystem.sol\":1265:1279  polls[_pollId] */\n      0x20\n      mstore\n      0x40\n      swap1\n      keccak256\n        /* \"Pollingsystem.sol\":1316:1328  poll.endTime */\n      0x02\n      dup2\n      add\n      sload\n        /* \"Pollingsystem.sol\":1298:1313  block.timestamp */\n      timestamp\n        /* \"Pollingsystem.sol\":1298:1328  block.timestamp < poll.endTime */\n      lt\n        /* \"Pollingsystem.sol\":1290:1349  require(block.timestamp < poll.endTime, \"Voting has ended\") */\n      tag_90\n      jumpi\n      mload(0x40)\n      shl(0xe5, 0x461bcd)\n      dup2\n      mstore\n        /* \"#utility.yul\":7065:7067   */\n      0x20\n        /* \"Pollingsystem.sol\":1290:1349  require(block.timestamp < poll.endTime, \"Voting has ended\") */\n      0x04\n      dup3\n      add\n        /* \"#utility.yul\":7047:7068   */\n      mstore\n        /* \"#utility.yul\":7104:7106   */\n      0x10\n        /* \"#utility.yul\":7084:7102   */\n      0x24\n      dup3\n      add\n        /* \"#utility.yul\":7077:7107   */\n      mstore\n      shl(0x82, 0x159bdd1a5b99c81a185cc8195b991959)\n        /* \"#utility.yul\":7123:7141   */\n      0x44\n      dup3\n      add\n        /* \"#utility.yul\":7116:7162   */\n      mstore\n        /* \"#utility.yul\":7179:7197   */\n      0x64\n      add\n        /* \"Pollingsystem.sol\":1290:1349  require(block.timestamp < poll.endTime, \"Voting has ended\") */\n      tag_39\n        /* \"#utility.yul\":6863:7203   */\n      jump\n        /* \"Pollingsystem.sol\":1290:1349  require(block.timestamp < poll.endTime, \"Voting has ended\") */\n    tag_90:\n        /* \"Pollingsystem.sol\":1383:1393  msg.sender */\n      caller\n        /* \"Pollingsystem.sol\":1369:1394  poll.hasVoted[msg.sender] */\n      0x00\n      swap1\n      dup2\n      mstore\n        /* \"Pollingsystem.sol\":1369:1382  poll.hasVoted */\n      0x04\n      dup3\n      add\n        /* \"Pollingsystem.sol\":1369:1394  poll.hasVoted[msg.sender] */\n      0x20\n      mstore\n      0x40\n      swap1\n      keccak256\n      sload\n      0xff\n      and\n        /* \"Pollingsystem.sol\":1368:1394  !poll.hasVoted[msg.sender] */\n      iszero\n        /* \"Pollingsystem.sol\":1360:1421  require(!poll.hasVoted[msg.sender], \"You have already voted\") */\n      tag_93\n      jumpi\n      mload(0x40)\n      shl(0xe5, 0x461bcd)\n      dup2\n      mstore\n        /* \"#utility.yul\":7410:7412   */\n      0x20\n        /* \"Pollingsystem.sol\":1360:1421  require(!poll.hasVoted[msg.sender], \"You have already voted\") */\n      0x04\n      dup3\n      add\n        /* \"#utility.yul\":7392:7413   */\n      mstore\n        /* \"#utility.yul\":7449:7451   */\n      0x16\n        /* \"#utility.yul\":7429:7447   */\n      0x24\n      dup3\n      add\n        /* \"#utility.yul\":7422:7452   */\n      mstore\n      shl(0x52, 0x165bdd481a185d9948185b1c9958591e481d9bdd1959)\n        /* \"#utility.yul\":7468:7486   */\n      0x44\n      dup3\n      add\n        /* \"#utility.yul\":7461:7513   */\n      mstore\n        /* \"#utility.yul\":7530:7548   */\n      0x64\n      add\n        /* \"Pollingsystem.sol\":1360:1421  require(!poll.hasVoted[msg.sender], \"You have already voted\") */\n      tag_39\n        /* \"#utility.yul\":7208:7554   */\n      jump\n        /* \"Pollingsystem.sol\":1360:1421  require(!poll.hasVoted[msg.sender], \"You have already voted\") */\n    tag_93:\n        /* \"Pollingsystem.sol\":1455:1467  poll.options */\n      0x01\n      dup2\n      add\n        /* \"Pollingsystem.sol\":1455:1474  poll.options.length */\n      sload\n        /* \"Pollingsystem.sol\":1440:1474  _optionIndex < poll.options.length */\n      dup3\n      lt\n        /* \"Pollingsystem.sol\":1432:1493  require(_optionIndex < poll.options.length, \"Invalid option\") */\n      tag_96\n      jumpi\n      mload(0x40)\n      shl(0xe5, 0x461bcd)\n      dup2\n      mstore\n        /* \"#utility.yul\":7761:7763   */\n      0x20\n        /* \"Pollingsystem.sol\":1432:1493  require(_optionIndex < poll.options.length, \"Invalid option\") */\n      0x04\n      dup3\n      add\n        /* \"#utility.yul\":7743:7764   */\n      mstore\n        /* \"#utility.yul\":7800:7802   */\n      0x0e\n        /* \"#utility.yul\":7780:7798   */\n      0x24\n      dup3\n      add\n        /* \"#utility.yul\":7773:7803   */\n      mstore\n      shl(0x91, 0x24b73b30b634b21037b83a34b7b7)\n        /* \"#utility.yul\":7819:7837   */\n      0x44\n      dup3\n      add\n        /* \"#utility.yul\":7812:7856   */\n      mstore\n        /* \"#utility.yul\":7873:7891   */\n      0x64\n      add\n        /* \"Pollingsystem.sol\":1432:1493  require(_optionIndex < poll.options.length, \"Invalid option\") */\n      tag_39\n        /* \"#utility.yul\":7559:7897   */\n      jump\n        /* \"Pollingsystem.sol\":1432:1493  require(_optionIndex < poll.options.length, \"Invalid option\") */\n    tag_96:\n        /* \"Pollingsystem.sol\":1506:1534  poll.voteCount[_optionIndex] */\n      0x00\n      dup3\n      dup2\n      mstore\n        /* \"Pollingsystem.sol\":1506:1520  poll.voteCount */\n      0x03\n      dup3\n      add\n        /* \"Pollingsystem.sol\":1506:1534  poll.voteCount[_optionIndex] */\n      0x20\n      mstore\n      0x40\n      dup2\n      keccak256\n        /* \"Pollingsystem.sol\":1506:1536  poll.voteCount[_optionIndex]++ */\n      dup1\n      sload\n      swap2\n      tag_99\n      dup4\n      tag_100\n      jump\t// in\n    tag_99:\n      swap1\n      swap2\n      sstore\n      pop\n      pop\n        /* \"Pollingsystem.sol\":1561:1571  msg.sender */\n      caller\n        /* \"Pollingsystem.sol\":1547:1572  poll.hasVoted[msg.sender] */\n      0x00\n      swap1\n      dup2\n      mstore\n        /* \"Pollingsystem.sol\":1547:1560  poll.hasVoted */\n      0x04\n      swap1\n      swap2\n      add\n        /* \"Pollingsystem.sol\":1547:1572  poll.hasVoted[msg.sender] */\n      0x20\n      mstore\n      0x40\n      swap1\n      keccak256\n        /* \"Pollingsystem.sol\":1547:1579  poll.hasVoted[msg.sender] = true */\n      dup1\n      sload\n      not(0xff)\n      and\n        /* \"Pollingsystem.sol\":1575:1579  true */\n      0x01\n        /* \"Pollingsystem.sol\":1547:1579  poll.hasVoted[msg.sender] = true */\n      or\n      swap1\n      sstore\n      pop\n      pop\n        /* \"Pollingsystem.sol\":1117:1587  function vote(uint _pollId, uint _optionIndex) external {... */\n      jump\t// out\n        /* \"Pollingsystem.sol\":506:1072  function createPoll(string memory _title, string[] memory _options, uint _durationMinutes) external {... */\n    tag_36:\n        /* \"Pollingsystem.sol\":644:645  2 */\n      0x02\n        /* \"Pollingsystem.sol\":625:633  _options */\n      dup3\n        /* \"Pollingsystem.sol\":625:640  _options.length */\n      mload\n        /* \"Pollingsystem.sol\":625:645  _options.length >= 2 */\n      lt\n      iszero\n        /* \"Pollingsystem.sol\":617:677  require(_options.length >= 2, \"At least 2 options required\") */\n      tag_102\n      jumpi\n      mload(0x40)\n      shl(0xe5, 0x461bcd)\n      dup2\n      mstore\n        /* \"#utility.yul\":8376:8378   */\n      0x20\n        /* \"Pollingsystem.sol\":617:677  require(_options.length >= 2, \"At least 2 options required\") */\n      0x04\n      dup3\n      add\n        /* \"#utility.yul\":8358:8379   */\n      mstore\n        /* \"#utility.yul\":8415:8417   */\n      0x1b\n        /* \"#utility.yul\":8395:8413   */\n      0x24\n      dup3\n      add\n        /* \"#utility.yul\":8388:8418   */\n      mstore\n        /* \"#utility.yul\":8454:8483   */\n      0x4174206c656173742032206f7074696f6e732072657175697265640000000000\n        /* \"#utility.yul\":8434:8452   */\n      0x44\n      dup3\n      add\n        /* \"#utility.yul\":8427:8484   */\n      mstore\n        /* \"#utility.yul\":8501:8519   */\n      0x64\n      add\n        /* \"Pollingsystem.sol\":617:677  require(_options.length >= 2, \"At least 2 options required\") */\n      tag_39\n        /* \"#utility.yul\":8174:8525   */\n      jump\n        /* \"Pollingsystem.sol\":617:677  require(_options.length >= 2, \"At least 2 options required\") */\n    tag_102:\n        /* \"Pollingsystem.sol\":715:716  0 */\n      0x00\n        /* \"Pollingsystem.sol\":696:712  _durationMinutes */\n      dup2\n        /* \"Pollingsystem.sol\":696:716  _durationMinutes > 0 */\n      gt\n        /* \"Pollingsystem.sol\":688:746  require(_durationMinutes > 0, \"Duration must be positive\") */\n      tag_105\n      jumpi\n      mload(0x40)\n      shl(0xe5, 0x461bcd)\n      dup2\n      mstore\n        /* \"#utility.yul\":8732:8734   */\n      0x20\n        /* \"Pollingsystem.sol\":688:746  require(_durationMinutes > 0, \"Duration must be positive\") */\n      0x04\n      dup3\n      add\n        /* \"#utility.yul\":8714:8735   */\n      mstore\n        /* \"#utility.yul\":8771:8773   */\n      0x19\n        /* \"#utility.yul\":8751:8769   */\n      0x24\n      dup3\n      add\n        /* \"#utility.yul\":8744:8774   */\n      mstore\n        /* \"#utility.yul\":8810:8837   */\n      0x4475726174696f6e206d75737420626520706f73697469766500000000000000\n        /* \"#utility.yul\":8790:8808   */\n      0x44\n      dup3\n      add\n        /* \"#utility.yul\":8783:8838   */\n      mstore\n        /* \"#utility.yul\":8855:8873   */\n      0x64\n      add\n        /* \"Pollingsystem.sol\":688:746  require(_durationMinutes > 0, \"Duration must be positive\") */\n      tag_39\n        /* \"#utility.yul\":8530:8879   */\n      jump\n        /* \"Pollingsystem.sol\":688:746  require(_durationMinutes > 0, \"Duration must be positive\") */\n    tag_105:\n        /* \"Pollingsystem.sol\":759:779  Poll storage newPoll */\n      0x00\n        /* \"Pollingsystem.sol\":788:797  pollCount */\n      dup1\n      sload\n        /* \"Pollingsystem.sol\":782:798  polls[pollCount] */\n      dup2\n      mstore\n        /* \"Pollingsystem.sol\":782:787  polls */\n      0x01\n        /* \"Pollingsystem.sol\":782:798  polls[pollCount] */\n      0x20\n      mstore\n      0x40\n      swap1\n      keccak256\n      dup1\n        /* \"Pollingsystem.sol\":809:831  newPoll.title = _title */\n      tag_108\n        /* \"Pollingsystem.sol\":825:831  _title */\n      dup6\n        /* \"Pollingsystem.sol\":782:798  polls[pollCount] */\n      dup3\n        /* \"Pollingsystem.sol\":809:831  newPoll.title = _title */\n      tag_109\n      jump\t// in\n    tag_108:\n      pop\n        /* \"Pollingsystem.sol\":842:868  newPoll.options = _options */\n      dup3\n      mload\n      tag_110\n      swap1\n        /* \"Pollingsystem.sol\":842:857  newPoll.options */\n      0x01\n      dup4\n      add\n      swap1\n        /* \"Pollingsystem.sol\":842:868  newPoll.options = _options */\n      0x20\n      dup7\n      add\n      swap1\n      tag_111\n      jump\t// in\n    tag_110:\n      pop\n        /* \"Pollingsystem.sol\":916:944  _durationMinutes * 1 minutes */\n      tag_112\n        /* \"Pollingsystem.sol\":916:932  _durationMinutes */\n      dup3\n        /* \"Pollingsystem.sol\":935:944  1 minutes */\n      0x3c\n        /* \"Pollingsystem.sol\":916:944  _durationMinutes * 1 minutes */\n      tag_113\n      jump\t// in\n    tag_112:\n        /* \"Pollingsystem.sol\":897:945  block.timestamp + (_durationMinutes * 1 minutes) */\n      tag_114\n      swap1\n        /* \"Pollingsystem.sol\":897:912  block.timestamp */\n      timestamp\n        /* \"Pollingsystem.sol\":897:945  block.timestamp + (_durationMinutes * 1 minutes) */\n      tag_115\n      jump\t// in\n    tag_114:\n        /* \"Pollingsystem.sol\":879:894  newPoll.endTime */\n      0x02\n      dup3\n      add\n        /* \"Pollingsystem.sol\":879:945  newPoll.endTime = block.timestamp + (_durationMinutes * 1 minutes) */\n      dup2\n      swap1\n      sstore\n        /* \"Pollingsystem.sol\":956:970  newPoll.exists */\n      0x05\n      dup3\n      add\n        /* \"Pollingsystem.sol\":956:977  newPoll.exists = true */\n      dup1\n      sload\n      not(0xff)\n      and\n        /* \"Pollingsystem.sol\":973:977  true */\n      0x01\n        /* \"Pollingsystem.sol\":956:977  newPoll.exists = true */\n      or\n      swap1\n      sstore\n        /* \"Pollingsystem.sol\":956:970  newPoll.exists */\n      0x00\n        /* \"Pollingsystem.sol\":1007:1016  pollCount */\n      sload\n        /* \"Pollingsystem.sol\":995:1042  PollCreated(pollCount, _title, newPoll.endTime) */\n      mload(0x40)\n      0xc3ad3dd4f77bea708d7c21b918efa79c536b30c5048924662db7a2bd96f48316\n      swap3\n      tag_116\n      swap3\n        /* \"Pollingsystem.sol\":1007:1016  pollCount */\n      swap2\n        /* \"Pollingsystem.sol\":1018:1024  _title */\n      dup9\n      swap2\n        /* \"Pollingsystem.sol\":879:945  newPoll.endTime = block.timestamp + (_durationMinutes * 1 minutes) */\n      swap1\n        /* \"Pollingsystem.sol\":995:1042  PollCreated(pollCount, _title, newPoll.endTime) */\n      tag_117\n      jump\t// in\n    tag_116:\n      mload(0x40)\n      dup1\n      swap2\n      sub\n      swap1\n      log1\n        /* \"Pollingsystem.sol\":1053:1062  pollCount */\n      0x00\n        /* \"Pollingsystem.sol\":1053:1064  pollCount++ */\n      dup1\n      sload\n      swap1\n        /* \"Pollingsystem.sol\":1053:1062  pollCount */\n      dup1\n        /* \"Pollingsystem.sol\":1053:1064  pollCount++ */\n      tag_118\n      dup4\n      tag_100\n      jump\t// in\n    tag_118:\n      swap2\n      swap1\n      pop\n      sstore\n      pop\n        /* \"Pollingsystem.sol\":606:1072  {... */\n      pop\n        /* \"Pollingsystem.sol\":506:1072  function createPoll(string memory _title, string[] memory _options, uint _durationMinutes) external {... */\n      pop\n      pop\n      pop\n      jump\t// out\n    tag_111:\n      dup3\n      dup1\n      sload\n      dup3\n      dup3\n      sstore\n      swap1\n      0x00\n      mstore\n      keccak256(0x00, 0x20)\n      swap1\n      dup2\n      add\n      swap3\n      dup3\n      iszero\n      tag_121\n      jumpi\n      swap2\n      0x20\n      mul\n      dup3\n      add\n    tag_120:\n      dup3\n      dup2\n      gt\n      iszero\n      tag_121\n      jumpi\n      dup3\n      mload\n      dup3\n      swap1\n      tag_122\n      swap1\n      dup3\n      tag_109\n      jump\t// in\n    tag_122:\n      pop\n      swap2\n      0x20\n      add\n      swap2\n      swap1\n      0x01\n      add\n      swap1\n      jump(tag_120)\n    tag_121:\n      pop\n      tag_123\n      swap3\n      swap2\n      pop\n      tag_124\n      jump\t// in\n    tag_123:\n      pop\n      swap1\n      jump\t// out\n    tag_124:\n      dup1\n      dup3\n      gt\n      iszero\n      tag_123\n      jumpi\n      0x00\n      tag_127\n      dup3\n      dup3\n      tag_128\n      jump\t// in\n    tag_127:\n      pop\n      0x01\n      add\n      jump(tag_124)\n    tag_128:\n      pop\n      dup1\n      sload\n      tag_129\n      swap1\n      tag_55\n      jump\t// in\n    tag_129:\n      0x00\n      dup3\n      sstore\n      dup1\n      0x1f\n      lt\n      tag_131\n      jumpi\n      pop\n      pop\n      jump\t// out\n    tag_131:\n      0x1f\n      add\n      0x20\n      swap1\n      div\n      swap1\n      0x00\n      mstore\n      keccak256(0x00, 0x20)\n      swap1\n      dup2\n      add\n      swap1\n      tag_132\n      swap2\n      swap1\n      tag_133\n      jump\t// in\n    tag_132:\n      pop\n      jump\t// out\n    tag_133:\n    tag_134:\n      dup1\n      dup3\n      gt\n      iszero\n      tag_123\n      jumpi\n      0x00\n      dup2\n      sstore\n      0x01\n      add\n      jump(tag_134)\n        /* \"#utility.yul\":14:240   */\n    tag_11:\n        /* \"#utility.yul\":73:79   */\n      0x00\n        /* \"#utility.yul\":126:128   */\n      0x20\n        /* \"#utility.yul\":114:123   */\n      dup3\n        /* \"#utility.yul\":105:112   */\n      dup5\n        /* \"#utility.yul\":101:124   */\n      sub\n        /* \"#utility.yul\":97:129   */\n      slt\n        /* \"#utility.yul\":94:146   */\n      iszero\n      tag_145\n      jumpi\n        /* \"#utility.yul\":142:143   */\n      0x00\n        /* \"#utility.yul\":139:140   */\n      0x00\n        /* \"#utility.yul\":132:144   */\n      revert\n        /* \"#utility.yul\":94:146   */\n    tag_145:\n      pop\n        /* \"#utility.yul\":187:210   */\n      calldataload\n      swap2\n        /* \"#utility.yul\":14:240   */\n      swap1\n      pop\n      jump\t// out\n        /* \"#utility.yul\":245:856   */\n    tag_14:\n        /* \"#utility.yul\":435:437   */\n      0x20\n        /* \"#utility.yul\":447:468   */\n      dup1\n      dup3\n      mstore\n        /* \"#utility.yul\":517:530   */\n      dup3\n      mload\n        /* \"#utility.yul\":420:438   */\n      dup3\n      dup3\n      add\n        /* \"#utility.yul\":539:561   */\n      dup2\n      swap1\n      mstore\n        /* \"#utility.yul\":387:391   */\n      0x00\n      swap2\n        /* \"#utility.yul\":618:633   */\n      dup5\n      add\n      swap1\n        /* \"#utility.yul\":592:594   */\n      0x40\n        /* \"#utility.yul\":577:595   */\n      dup5\n      add\n      swap1\n        /* \"#utility.yul\":387:391   */\n      dup4\n        /* \"#utility.yul\":661:830   */\n    tag_147:\n        /* \"#utility.yul\":675:681   */\n      dup2\n        /* \"#utility.yul\":672:673   */\n      dup2\n        /* \"#utility.yul\":669:682   */\n      lt\n        /* \"#utility.yul\":661:830   */\n      iszero\n      tag_149\n      jumpi\n        /* \"#utility.yul\":736:749   */\n      dup4\n      mload\n        /* \"#utility.yul\":724:750   */\n      dup4\n      mstore\n        /* \"#utility.yul\":779:781   */\n      0x20\n        /* \"#utility.yul\":805:820   */\n      swap4\n      dup5\n      add\n      swap4\n        /* \"#utility.yul\":770:782   */\n      swap1\n      swap3\n      add\n      swap2\n        /* \"#utility.yul\":697:698   */\n      0x01\n        /* \"#utility.yul\":690:699   */\n      add\n        /* \"#utility.yul\":661:830   */\n      jump(tag_147)\n    tag_149:\n      pop\n        /* \"#utility.yul\":847:850   */\n      swap1\n      swap6\n        /* \"#utility.yul\":245:856   */\n      swap5\n      pop\n      pop\n      pop\n      pop\n      pop\n      jump\t// out\n        /* \"#utility.yul\":1043:1332   */\n    tag_136:\n        /* \"#utility.yul\":1085:1088   */\n      0x00\n        /* \"#utility.yul\":1123:1128   */\n      dup2\n        /* \"#utility.yul\":1117:1129   */\n      mload\n        /* \"#utility.yul\":1150:1156   */\n      dup1\n        /* \"#utility.yul\":1145:1148   */\n      dup5\n        /* \"#utility.yul\":1138:1157   */\n      mstore\n        /* \"#utility.yul\":1206:1212   */\n      dup1\n        /* \"#utility.yul\":1199:1203   */\n      0x20\n        /* \"#utility.yul\":1192:1197   */\n      dup5\n        /* \"#utility.yul\":1188:1204   */\n      add\n        /* \"#utility.yul\":1181:1185   */\n      0x20\n        /* \"#utility.yul\":1176:1179   */\n      dup7\n        /* \"#utility.yul\":1172:1186   */\n      add\n        /* \"#utility.yul\":1166:1213   */\n      mcopy\n        /* \"#utility.yul\":1258:1259   */\n      0x00\n        /* \"#utility.yul\":1251:1255   */\n      0x20\n        /* \"#utility.yul\":1242:1248   */\n      dup3\n        /* \"#utility.yul\":1237:1240   */\n      dup7\n        /* \"#utility.yul\":1233:1249   */\n      add\n        /* \"#utility.yul\":1229:1256   */\n      add\n        /* \"#utility.yul\":1222:1260   */\n      mstore\n        /* \"#utility.yul\":1321:1325   */\n      0x20\n        /* \"#utility.yul\":1314:1316   */\n      0x1f\n        /* \"#utility.yul\":1310:1317   */\n      not\n        /* \"#utility.yul\":1305:1307   */\n      0x1f\n        /* \"#utility.yul\":1297:1303   */\n      dup4\n        /* \"#utility.yul\":1293:1308   */\n      add\n        /* \"#utility.yul\":1289:1318   */\n      and\n        /* \"#utility.yul\":1284:1287   */\n      dup6\n        /* \"#utility.yul\":1280:1319   */\n      add\n        /* \"#utility.yul\":1276:1326   */\n      add\n        /* \"#utility.yul\":1269:1326   */\n      swap2\n      pop\n      pop\n        /* \"#utility.yul\":1043:1332   */\n      swap3\n      swap2\n      pop\n      pop\n      jump\t// out\n        /* \"#utility.yul\":1337:2315   */\n    tag_23:\n        /* \"#utility.yul\":1612:1614   */\n      0x60\n        /* \"#utility.yul\":1601:1610   */\n      dup2\n        /* \"#utility.yul\":1594:1615   */\n      mstore\n        /* \"#utility.yul\":1575:1579   */\n      0x00\n        /* \"#utility.yul\":1638:1683   */\n      tag_153\n        /* \"#utility.yul\":1679:1681   */\n      0x60\n        /* \"#utility.yul\":1668:1677   */\n      dup4\n        /* \"#utility.yul\":1664:1682   */\n      add\n        /* \"#utility.yul\":1656:1662   */\n      dup7\n        /* \"#utility.yul\":1638:1683   */\n      tag_136\n      jump\t// in\n    tag_153:\n        /* \"#utility.yul\":1731:1740   */\n      dup3\n        /* \"#utility.yul\":1723:1729   */\n      dup2\n        /* \"#utility.yul\":1719:1741   */\n      sub\n        /* \"#utility.yul\":1714:1716   */\n      0x20\n        /* \"#utility.yul\":1703:1712   */\n      dup5\n        /* \"#utility.yul\":1699:1717   */\n      add\n        /* \"#utility.yul\":1692:1742   */\n      mstore\n        /* \"#utility.yul\":1762:1768   */\n      dup1\n        /* \"#utility.yul\":1797:1803   */\n      dup6\n        /* \"#utility.yul\":1791:1804   */\n      mload\n        /* \"#utility.yul\":1828:1834   */\n      dup1\n        /* \"#utility.yul\":1820:1826   */\n      dup4\n        /* \"#utility.yul\":1813:1835   */\n      mstore\n        /* \"#utility.yul\":1863:1865   */\n      0x20\n        /* \"#utility.yul\":1855:1861   */\n      dup4\n        /* \"#utility.yul\":1851:1866   */\n      add\n        /* \"#utility.yul\":1844:1866   */\n      swap2\n      pop\n        /* \"#utility.yul\":1922:1924   */\n      0x20\n        /* \"#utility.yul\":1912:1918   */\n      dup2\n        /* \"#utility.yul\":1909:1910   */\n      0x05\n        /* \"#utility.yul\":1905:1919   */\n      shl\n        /* \"#utility.yul\":1897:1903   */\n      dup5\n        /* \"#utility.yul\":1893:1920   */\n      add\n        /* \"#utility.yul\":1889:1925   */\n      add\n        /* \"#utility.yul\":1960:1962   */\n      0x20\n        /* \"#utility.yul\":1952:1958   */\n      dup9\n        /* \"#utility.yul\":1948:1963   */\n      add\n        /* \"#utility.yul\":1981:1982   */\n      0x00\n        /* \"#utility.yul\":1991:2243   */\n    tag_154:\n        /* \"#utility.yul\":2005:2011   */\n      dup4\n        /* \"#utility.yul\":2002:2003   */\n      dup2\n        /* \"#utility.yul\":1999:2012   */\n      lt\n        /* \"#utility.yul\":1991:2243   */\n      iszero\n      tag_156\n      jumpi\n        /* \"#utility.yul\":2095:2097   */\n      0x1f\n        /* \"#utility.yul\":2091:2098   */\n      not\n        /* \"#utility.yul\":2082:2088   */\n      dup7\n        /* \"#utility.yul\":2074:2080   */\n      dup5\n        /* \"#utility.yul\":2070:2089   */\n      sub\n        /* \"#utility.yul\":2066:2099   */\n      add\n        /* \"#utility.yul\":2061:2064   */\n      dup6\n        /* \"#utility.yul\":2054:2100   */\n      mstore\n        /* \"#utility.yul\":2123:2163   */\n      tag_157\n        /* \"#utility.yul\":2156:2162   */\n      dup4\n        /* \"#utility.yul\":2147:2153   */\n      dup4\n        /* \"#utility.yul\":2141:2154   */\n      mload\n        /* \"#utility.yul\":2123:2163   */\n      tag_136\n      jump\t// in\n    tag_157:\n        /* \"#utility.yul\":2198:2200   */\n      0x20\n        /* \"#utility.yul\":2221:2233   */\n      swap6\n      dup7\n      add\n      swap6\n        /* \"#utility.yul\":2113:2163   */\n      swap1\n      swap4\n      pop\n        /* \"#utility.yul\":2186:2201   */\n      swap2\n      swap1\n      swap2\n      add\n      swap1\n        /* \"#utility.yul\":2027:2028   */\n      0x01\n        /* \"#utility.yul\":2020:2029   */\n      add\n        /* \"#utility.yul\":1991:2243   */\n      jump(tag_154)\n    tag_156:\n        /* \"#utility.yul\":1995:1998   */\n      pop\n      pop\n        /* \"#utility.yul\":2260:2266   */\n      dup1\n        /* \"#utility.yul\":2252:2266   */\n      swap5\n      pop\n      pop\n      pop\n      pop\n      pop\n        /* \"#utility.yul\":2302:2308   */\n      dup3\n        /* \"#utility.yul\":2297:2299   */\n      0x40\n        /* \"#utility.yul\":2286:2295   */\n      dup4\n        /* \"#utility.yul\":2282:2300   */\n      add\n        /* \"#utility.yul\":2275:2309   */\n      mstore\n        /* \"#utility.yul\":1337:2315   */\n      swap5\n      swap4\n      pop\n      pop\n      pop\n      pop\n      jump\t// out\n        /* \"#utility.yul\":2320:2540   */\n    tag_28:\n        /* \"#utility.yul\":2469:2471   */\n      0x20\n        /* \"#utility.yul\":2458:2467   */\n      dup2\n        /* \"#utility.yul\":2451:2472   */\n      mstore\n        /* \"#utility.yul\":2432:2436   */\n      0x00\n        /* \"#utility.yul\":2489:2534   */\n      tag_159\n        /* \"#utility.yul\":2530:2532   */\n      0x20\n        /* \"#utility.yul\":2519:2528   */\n      dup4\n        /* \"#utility.yul\":2515:2533   */\n      add\n        /* \"#utility.yul\":2507:2513   */\n      dup5\n        /* \"#utility.yul\":2489:2534   */\n      tag_136\n      jump\t// in\n    tag_159:\n        /* \"#utility.yul\":2481:2534   */\n      swap4\n        /* \"#utility.yul\":2320:2540   */\n      swap3\n      pop\n      pop\n      pop\n      jump\t// out\n        /* \"#utility.yul\":2545:2891   */\n    tag_31:\n        /* \"#utility.yul\":2613:2619   */\n      0x00\n        /* \"#utility.yul\":2621:2627   */\n      0x00\n        /* \"#utility.yul\":2674:2676   */\n      0x40\n        /* \"#utility.yul\":2662:2671   */\n      dup4\n        /* \"#utility.yul\":2653:2660   */\n      dup6\n        /* \"#utility.yul\":2649:2672   */\n      sub\n        /* \"#utility.yul\":2645:2677   */\n      slt\n        /* \"#utility.yul\":2642:2694   */\n      iszero\n      tag_161\n      jumpi\n        /* \"#utility.yul\":2690:2691   */\n      0x00\n        /* \"#utility.yul\":2687:2688   */\n      0x00\n        /* \"#utility.yul\":2680:2692   */\n      revert\n        /* \"#utility.yul\":2642:2694   */\n    tag_161:\n      pop\n      pop\n        /* \"#utility.yul\":2735:2758   */\n      dup1\n      calldataload\n      swap3\n        /* \"#utility.yul\":2855:2857   */\n      0x20\n        /* \"#utility.yul\":2840:2858   */\n      swap1\n      swap2\n      add\n        /* \"#utility.yul\":2827:2859   */\n      calldataload\n      swap2\n      pop\n        /* \"#utility.yul\":2545:2891   */\n      jump\t// out\n        /* \"#utility.yul\":2896:3023   */\n    tag_43:\n        /* \"#utility.yul\":2957:2967   */\n      0x4e487b71\n        /* \"#utility.yul\":2952:2955   */\n      0xe0\n        /* \"#utility.yul\":2948:2968   */\n      shl\n        /* \"#utility.yul\":2945:2946   */\n      0x00\n        /* \"#utility.yul\":2938:2969   */\n      mstore\n        /* \"#utility.yul\":2988:2992   */\n      0x41\n        /* \"#utility.yul\":2985:2986   */\n      0x04\n        /* \"#utility.yul\":2978:2993   */\n      mstore\n        /* \"#utility.yul\":3012:3016   */\n      0x24\n        /* \"#utility.yul\":3009:3010   */\n      0x00\n        /* \"#utility.yul\":3002:3017   */\n      revert\n        /* \"#utility.yul\":3028:3303   */\n    tag_137:\n        /* \"#utility.yul\":3099:3101   */\n      0x40\n        /* \"#utility.yul\":3093:3102   */\n      mload\n        /* \"#utility.yul\":3164:3166   */\n      0x1f\n        /* \"#utility.yul\":3145:3158   */\n      dup3\n      add\n      not(0x1f)\n        /* \"#utility.yul\":3141:3168   */\n      and\n        /* \"#utility.yul\":3129:3169   */\n      dup2\n      add\n        /* \"#utility.yul\":3199:3217   */\n      0xffffffffffffffff\n        /* \"#utility.yul\":3184:3218   */\n      dup2\n      gt\n        /* \"#utility.yul\":3220:3242   */\n      dup3\n      dup3\n      lt\n        /* \"#utility.yul\":3181:3243   */\n      or\n        /* \"#utility.yul\":3178:3266   */\n      iszero\n      tag_165\n      jumpi\n        /* \"#utility.yul\":3246:3264   */\n      tag_165\n      tag_43\n      jump\t// in\n    tag_165:\n        /* \"#utility.yul\":3282:3284   */\n      0x40\n        /* \"#utility.yul\":3275:3297   */\n      mstore\n        /* \"#utility.yul\":3028:3303   */\n      swap2\n      swap1\n      pop\n      jump\t// out\n        /* \"#utility.yul\":3308:3867   */\n    tag_138:\n        /* \"#utility.yul\":3351:3356   */\n      0x00\n        /* \"#utility.yul\":3404:3407   */\n      dup3\n        /* \"#utility.yul\":3397:3401   */\n      0x1f\n        /* \"#utility.yul\":3389:3395   */\n      dup4\n        /* \"#utility.yul\":3385:3402   */\n      add\n        /* \"#utility.yul\":3381:3408   */\n      slt\n        /* \"#utility.yul\":3371:3426   */\n      tag_167\n      jumpi\n        /* \"#utility.yul\":3422:3423   */\n      0x00\n        /* \"#utility.yul\":3419:3420   */\n      0x00\n        /* \"#utility.yul\":3412:3424   */\n      revert\n        /* \"#utility.yul\":3371:3426   */\n    tag_167:\n        /* \"#utility.yul\":3462:3468   */\n      dup2\n        /* \"#utility.yul\":3449:3469   */\n      calldataload\n        /* \"#utility.yul\":3492:3510   */\n      0xffffffffffffffff\n        /* \"#utility.yul\":3484:3490   */\n      dup2\n        /* \"#utility.yul\":3481:3511   */\n      gt\n        /* \"#utility.yul\":3478:3534   */\n      iszero\n      tag_169\n      jumpi\n        /* \"#utility.yul\":3514:3532   */\n      tag_169\n      tag_43\n      jump\t// in\n    tag_169:\n        /* \"#utility.yul\":3558:3617   */\n      tag_170\n        /* \"#utility.yul\":3605:3607   */\n      0x1f\n        /* \"#utility.yul\":3582:3599   */\n      dup3\n      add\n      not(0x1f)\n        /* \"#utility.yul\":3578:3609   */\n      and\n        /* \"#utility.yul\":3611:3615   */\n      0x20\n        /* \"#utility.yul\":3574:3616   */\n      add\n        /* \"#utility.yul\":3558:3617   */\n      tag_137\n      jump\t// in\n    tag_170:\n        /* \"#utility.yul\":3642:3648   */\n      dup2\n        /* \"#utility.yul\":3633:3640   */\n      dup2\n        /* \"#utility.yul\":3626:3649   */\n      mstore\n        /* \"#utility.yul\":3696:3699   */\n      dup5\n        /* \"#utility.yul\":3689:3693   */\n      0x20\n        /* \"#utility.yul\":3680:3686   */\n      dup4\n        /* \"#utility.yul\":3672:3678   */\n      dup7\n        /* \"#utility.yul\":3668:3687   */\n      add\n        /* \"#utility.yul\":3664:3694   */\n      add\n        /* \"#utility.yul\":3661:3700   */\n      gt\n        /* \"#utility.yul\":3658:3717   */\n      iszero\n      tag_171\n      jumpi\n        /* \"#utility.yul\":3713:3714   */\n      0x00\n        /* \"#utility.yul\":3710:3711   */\n      0x00\n        /* \"#utility.yul\":3703:3715   */\n      revert\n        /* \"#utility.yul\":3658:3717   */\n    tag_171:\n        /* \"#utility.yul\":3778:3784   */\n      dup2\n        /* \"#utility.yul\":3771:3775   */\n      0x20\n        /* \"#utility.yul\":3763:3769   */\n      dup6\n        /* \"#utility.yul\":3759:3776   */\n      add\n        /* \"#utility.yul\":3752:3756   */\n      0x20\n        /* \"#utility.yul\":3743:3750   */\n      dup4\n        /* \"#utility.yul\":3739:3757   */\n      add\n        /* \"#utility.yul\":3726:3785   */\n      calldatacopy\n        /* \"#utility.yul\":3834:3835   */\n      0x00\n        /* \"#utility.yul\":3805:3825   */\n      swap2\n      dup2\n      add\n        /* \"#utility.yul\":3827:3831   */\n      0x20\n        /* \"#utility.yul\":3801:3832   */\n      add\n        /* \"#utility.yul\":3794:3836   */\n      swap2\n      swap1\n      swap2\n      mstore\n        /* \"#utility.yul\":3809:3816   */\n      swap4\n        /* \"#utility.yul\":3308:3867   */\n      swap3\n      pop\n      pop\n      pop\n      jump\t// out\n        /* \"#utility.yul\":3872:5305   */\n    tag_35:\n        /* \"#utility.yul\":3994:4000   */\n      0x00\n        /* \"#utility.yul\":4002:4008   */\n      0x00\n        /* \"#utility.yul\":4010:4016   */\n      0x00\n        /* \"#utility.yul\":4063:4065   */\n      0x60\n        /* \"#utility.yul\":4051:4060   */\n      dup5\n        /* \"#utility.yul\":4042:4049   */\n      dup7\n        /* \"#utility.yul\":4038:4061   */\n      sub\n        /* \"#utility.yul\":4034:4066   */\n      slt\n        /* \"#utility.yul\":4031:4083   */\n      iszero\n      tag_173\n      jumpi\n        /* \"#utility.yul\":4079:4080   */\n      0x00\n        /* \"#utility.yul\":4076:4077   */\n      0x00\n        /* \"#utility.yul\":4069:4081   */\n      revert\n        /* \"#utility.yul\":4031:4083   */\n    tag_173:\n        /* \"#utility.yul\":4119:4128   */\n      dup4\n        /* \"#utility.yul\":4106:4129   */\n      calldataload\n        /* \"#utility.yul\":4152:4170   */\n      0xffffffffffffffff\n        /* \"#utility.yul\":4144:4150   */\n      dup2\n        /* \"#utility.yul\":4141:4171   */\n      gt\n        /* \"#utility.yul\":4138:4188   */\n      iszero\n      tag_174\n      jumpi\n        /* \"#utility.yul\":4184:4185   */\n      0x00\n        /* \"#utility.yul\":4181:4182   */\n      0x00\n        /* \"#utility.yul\":4174:4186   */\n      revert\n        /* \"#utility.yul\":4138:4188   */\n    tag_174:\n        /* \"#utility.yul\":4207:4257   */\n      tag_175\n        /* \"#utility.yul\":4249:4256   */\n      dup7\n        /* \"#utility.yul\":4240:4246   */\n      dup3\n        /* \"#utility.yul\":4229:4238   */\n      dup8\n        /* \"#utility.yul\":4225:4247   */\n      add\n        /* \"#utility.yul\":4207:4257   */\n      tag_138\n      jump\t// in\n    tag_175:\n        /* \"#utility.yul\":4197:4257   */\n      swap4\n      pop\n      pop\n        /* \"#utility.yul\":4310:4312   */\n      0x20\n        /* \"#utility.yul\":4299:4308   */\n      dup5\n        /* \"#utility.yul\":4295:4313   */\n      add\n        /* \"#utility.yul\":4282:4314   */\n      calldataload\n        /* \"#utility.yul\":4339:4357   */\n      0xffffffffffffffff\n        /* \"#utility.yul\":4329:4337   */\n      dup2\n        /* \"#utility.yul\":4326:4358   */\n      gt\n        /* \"#utility.yul\":4323:4375   */\n      iszero\n      tag_176\n      jumpi\n        /* \"#utility.yul\":4371:4372   */\n      0x00\n        /* \"#utility.yul\":4368:4369   */\n      0x00\n        /* \"#utility.yul\":4361:4373   */\n      revert\n        /* \"#utility.yul\":4323:4375   */\n    tag_176:\n        /* \"#utility.yul\":4394:4418   */\n      dup5\n      add\n        /* \"#utility.yul\":4449:4453   */\n      0x1f\n        /* \"#utility.yul\":4441:4454   */\n      dup2\n      add\n        /* \"#utility.yul\":4437:4464   */\n      dup7\n      sgt\n        /* \"#utility.yul\":4427:4482   */\n      tag_177\n      jumpi\n        /* \"#utility.yul\":4478:4479   */\n      0x00\n        /* \"#utility.yul\":4475:4476   */\n      0x00\n        /* \"#utility.yul\":4468:4480   */\n      revert\n        /* \"#utility.yul\":4427:4482   */\n    tag_177:\n        /* \"#utility.yul\":4518:4520   */\n      dup1\n        /* \"#utility.yul\":4505:4521   */\n      calldataload\n        /* \"#utility.yul\":4544:4562   */\n      0xffffffffffffffff\n        /* \"#utility.yul\":4536:4542   */\n      dup2\n        /* \"#utility.yul\":4533:4563   */\n      gt\n        /* \"#utility.yul\":4530:4586   */\n      iszero\n      tag_179\n      jumpi\n        /* \"#utility.yul\":4566:4584   */\n      tag_179\n      tag_43\n      jump\t// in\n    tag_179:\n        /* \"#utility.yul\":4612:4618   */\n      dup1\n        /* \"#utility.yul\":4609:4610   */\n      0x05\n        /* \"#utility.yul\":4605:4619   */\n      shl\n        /* \"#utility.yul\":4639:4667   */\n      tag_180\n        /* \"#utility.yul\":4663:4665   */\n      0x20\n        /* \"#utility.yul\":4659:4661   */\n      dup3\n        /* \"#utility.yul\":4655:4666   */\n      add\n        /* \"#utility.yul\":4639:4667   */\n      tag_137\n      jump\t// in\n    tag_180:\n        /* \"#utility.yul\":4701:4720   */\n      swap2\n      dup3\n      mstore\n        /* \"#utility.yul\":4745:4747   */\n      0x20\n        /* \"#utility.yul\":4775:4786   */\n      dup2\n      dup5\n      add\n        /* \"#utility.yul\":4771:4791   */\n      dup2\n      add\n      swap3\n        /* \"#utility.yul\":4736:4748   */\n      swap1\n      dup2\n      add\n      swap1\n        /* \"#utility.yul\":4803:4822   */\n      dup10\n      dup5\n      gt\n        /* \"#utility.yul\":4800:4839   */\n      iszero\n      tag_181\n      jumpi\n        /* \"#utility.yul\":4835:4836   */\n      0x00\n        /* \"#utility.yul\":4832:4833   */\n      0x00\n        /* \"#utility.yul\":4825:4837   */\n      revert\n        /* \"#utility.yul\":4800:4839   */\n    tag_181:\n        /* \"#utility.yul\":4867:4869   */\n      0x20\n        /* \"#utility.yul\":4863:4865   */\n      dup6\n        /* \"#utility.yul\":4859:4870   */\n      add\n        /* \"#utility.yul\":4848:4870   */\n      swap3\n      pop\n        /* \"#utility.yul\":4879:5178   */\n    tag_182:\n        /* \"#utility.yul\":4895:4901   */\n      dup4\n        /* \"#utility.yul\":4890:4893   */\n      dup4\n        /* \"#utility.yul\":4887:4902   */\n      lt\n        /* \"#utility.yul\":4879:5178   */\n      iszero\n      tag_184\n      jumpi\n        /* \"#utility.yul\":4981:4984   */\n      dup3\n        /* \"#utility.yul\":4968:4985   */\n      calldataload\n        /* \"#utility.yul\":5017:5035   */\n      0xffffffffffffffff\n        /* \"#utility.yul\":5004:5015   */\n      dup2\n        /* \"#utility.yul\":5001:5036   */\n      gt\n        /* \"#utility.yul\":4998:5053   */\n      iszero\n      tag_185\n      jumpi\n        /* \"#utility.yul\":5049:5050   */\n      0x00\n        /* \"#utility.yul\":5046:5047   */\n      0x00\n        /* \"#utility.yul\":5039:5051   */\n      revert\n        /* \"#utility.yul\":4998:5053   */\n    tag_185:\n        /* \"#utility.yul\":5078:5135   */\n      tag_186\n        /* \"#utility.yul\":5127:5134   */\n      dup12\n        /* \"#utility.yul\":5122:5124   */\n      0x20\n        /* \"#utility.yul\":5108:5119   */\n      dup4\n        /* \"#utility.yul\":5104:5106   */\n      dup10\n        /* \"#utility.yul\":5100:5120   */\n      add\n        /* \"#utility.yul\":5096:5125   */\n      add\n        /* \"#utility.yul\":5078:5135   */\n      tag_138\n      jump\t// in\n    tag_186:\n        /* \"#utility.yul\":5066:5136   */\n      dup4\n      mstore\n      pop\n        /* \"#utility.yul\":5165:5167   */\n      0x20\n        /* \"#utility.yul\":4912:4924   */\n      swap3\n      dup4\n      add\n      swap3\n        /* \"#utility.yul\":5156:5168   */\n      swap1\n      swap2\n      add\n      swap1\n        /* \"#utility.yul\":4879:5178   */\n      jump(tag_182)\n    tag_184:\n        /* \"#utility.yul\":3872:5305   */\n      swap7\n      swap10\n        /* \"#utility.yul\":5197:5202   */\n      swap7\n      swap9\n      pop\n      pop\n      pop\n      pop\n        /* \"#utility.yul\":5271:5273   */\n      0x40\n        /* \"#utility.yul\":5256:5274   */\n      swap5\n      swap1\n      swap5\n      add\n        /* \"#utility.yul\":5243:5275   */\n      calldataload\n      swap4\n      pop\n      pop\n      pop\n        /* \"#utility.yul\":3872:5305   */\n      jump\t// out\n        /* \"#utility.yul\":5310:5648   */\n    tag_40:\n        /* \"#utility.yul\":5512:5514   */\n      0x20\n        /* \"#utility.yul\":5494:5515   */\n      dup1\n      dup3\n      mstore\n        /* \"#utility.yul\":5551:5553   */\n      0x0e\n        /* \"#utility.yul\":5531:5549   */\n      swap1\n      dup3\n      add\n        /* \"#utility.yul\":5524:5554   */\n      mstore\n      shl(0x92, 0x141bdb1b081b9bdd08199bdd5b99)\n        /* \"#utility.yul\":5585:5587   */\n      0x40\n        /* \"#utility.yul\":5570:5588   */\n      dup3\n      add\n        /* \"#utility.yul\":5563:5607   */\n      mstore\n        /* \"#utility.yul\":5639:5641   */\n      0x60\n        /* \"#utility.yul\":5624:5642   */\n      add\n      swap1\n        /* \"#utility.yul\":5310:5648   */\n      jump\t// out\n        /* \"#utility.yul\":5653:5780   */\n    tag_50:\n        /* \"#utility.yul\":5714:5724   */\n      0x4e487b71\n        /* \"#utility.yul\":5709:5712   */\n      0xe0\n        /* \"#utility.yul\":5705:5725   */\n      shl\n        /* \"#utility.yul\":5702:5703   */\n      0x00\n        /* \"#utility.yul\":5695:5726   */\n      mstore\n        /* \"#utility.yul\":5745:5749   */\n      0x32\n        /* \"#utility.yul\":5742:5743   */\n      0x04\n        /* \"#utility.yul\":5735:5750   */\n      mstore\n        /* \"#utility.yul\":5769:5773   */\n      0x24\n        /* \"#utility.yul\":5766:5767   */\n      0x00\n        /* \"#utility.yul\":5759:5774   */\n      revert\n        /* \"#utility.yul\":5785:6165   */\n    tag_55:\n        /* \"#utility.yul\":5864:5865   */\n      0x01\n        /* \"#utility.yul\":5860:5872   */\n      dup2\n      dup2\n      shr\n      swap1\n        /* \"#utility.yul\":5907:5919   */\n      dup3\n      and\n      dup1\n        /* \"#utility.yul\":5928:5989   */\n      tag_190\n      jumpi\n        /* \"#utility.yul\":5982:5986   */\n      0x7f\n        /* \"#utility.yul\":5974:5980   */\n      dup3\n        /* \"#utility.yul\":5970:5987   */\n      and\n        /* \"#utility.yul\":5960:5987   */\n      swap2\n      pop\n        /* \"#utility.yul\":5928:5989   */\n    tag_190:\n        /* \"#utility.yul\":6035:6037   */\n      0x20\n        /* \"#utility.yul\":6027:6033   */\n      dup3\n        /* \"#utility.yul\":6024:6038   */\n      lt\n        /* \"#utility.yul\":6004:6022   */\n      dup2\n        /* \"#utility.yul\":6001:6039   */\n      sub\n        /* \"#utility.yul\":5998:6159   */\n      tag_191\n      jumpi\n        /* \"#utility.yul\":6081:6091   */\n      0x4e487b71\n        /* \"#utility.yul\":6076:6079   */\n      0xe0\n        /* \"#utility.yul\":6072:6092   */\n      shl\n        /* \"#utility.yul\":6069:6070   */\n      0x00\n        /* \"#utility.yul\":6062:6093   */\n      mstore\n        /* \"#utility.yul\":6116:6120   */\n      0x22\n        /* \"#utility.yul\":6113:6114   */\n      0x04\n        /* \"#utility.yul\":6106:6121   */\n      mstore\n        /* \"#utility.yul\":6144:6148   */\n      0x24\n        /* \"#utility.yul\":6141:6142   */\n      0x00\n        /* \"#utility.yul\":6134:6149   */\n      revert\n        /* \"#utility.yul\":5998:6159   */\n    tag_191:\n      pop\n        /* \"#utility.yul\":5785:6165   */\n      swap2\n      swap1\n      pop\n      jump\t// out\n        /* \"#utility.yul\":7902:8029   */\n    tag_139:\n        /* \"#utility.yul\":7963:7973   */\n      0x4e487b71\n        /* \"#utility.yul\":7958:7961   */\n      0xe0\n        /* \"#utility.yul\":7954:7974   */\n      shl\n        /* \"#utility.yul\":7951:7952   */\n      0x00\n        /* \"#utility.yul\":7944:7975   */\n      mstore\n        /* \"#utility.yul\":7994:7998   */\n      0x11\n        /* \"#utility.yul\":7991:7992   */\n      0x04\n        /* \"#utility.yul\":7984:7999   */\n      mstore\n        /* \"#utility.yul\":8018:8022   */\n      0x24\n        /* \"#utility.yul\":8015:8016   */\n      0x00\n        /* \"#utility.yul\":8008:8023   */\n      revert\n        /* \"#utility.yul\":8034:8169   */\n    tag_100:\n        /* \"#utility.yul\":8073:8076   */\n      0x00\n        /* \"#utility.yul\":8094:8111   */\n      0x01\n      dup3\n      add\n        /* \"#utility.yul\":8091:8134   */\n      tag_200\n      jumpi\n        /* \"#utility.yul\":8114:8132   */\n      tag_200\n      tag_139\n      jump\t// in\n    tag_200:\n      pop\n        /* \"#utility.yul\":8161:8162   */\n      0x01\n        /* \"#utility.yul\":8150:8163   */\n      add\n      swap1\n        /* \"#utility.yul\":8034:8169   */\n      jump\t// out\n        /* \"#utility.yul\":9010:9528   */\n    tag_141:\n        /* \"#utility.yul\":9112:9114   */\n      0x1f\n        /* \"#utility.yul\":9107:9110   */\n      dup3\n        /* \"#utility.yul\":9104:9115   */\n      gt\n        /* \"#utility.yul\":9101:9522   */\n      iszero\n      tag_205\n      jumpi\n        /* \"#utility.yul\":9148:9153   */\n      dup1\n        /* \"#utility.yul\":9145:9146   */\n      0x00\n        /* \"#utility.yul\":9138:9154   */\n      mstore\n        /* \"#utility.yul\":9192:9196   */\n      0x20\n        /* \"#utility.yul\":9189:9190   */\n      0x00\n        /* \"#utility.yul\":9179:9197   */\n      keccak256\n        /* \"#utility.yul\":9262:9264   */\n      0x1f\n        /* \"#utility.yul\":9250:9260   */\n      dup5\n        /* \"#utility.yul\":9246:9265   */\n      add\n        /* \"#utility.yul\":9243:9244   */\n      0x05\n        /* \"#utility.yul\":9239:9266   */\n      shr\n        /* \"#utility.yul\":9233:9237   */\n      dup2\n        /* \"#utility.yul\":9229:9267   */\n      add\n        /* \"#utility.yul\":9298:9302   */\n      0x20\n        /* \"#utility.yul\":9286:9296   */\n      dup6\n        /* \"#utility.yul\":9283:9303   */\n      lt\n        /* \"#utility.yul\":9280:9327   */\n      iszero\n      tag_206\n      jumpi\n      pop\n        /* \"#utility.yul\":9321:9325   */\n      dup1\n        /* \"#utility.yul\":9280:9327   */\n    tag_206:\n        /* \"#utility.yul\":9376:9378   */\n      0x1f\n        /* \"#utility.yul\":9371:9374   */\n      dup5\n        /* \"#utility.yul\":9367:9379   */\n      add\n        /* \"#utility.yul\":9364:9365   */\n      0x05\n        /* \"#utility.yul\":9360:9380   */\n      shr\n        /* \"#utility.yul\":9354:9358   */\n      dup3\n        /* \"#utility.yul\":9350:9381   */\n      add\n        /* \"#utility.yul\":9340:9381   */\n      swap2\n      pop\n        /* \"#utility.yul\":9431:9512   */\n    tag_207:\n        /* \"#utility.yul\":9449:9451   */\n      dup2\n        /* \"#utility.yul\":9442:9447   */\n      dup2\n        /* \"#utility.yul\":9439:9452   */\n      lt\n        /* \"#utility.yul\":9431:9512   */\n      iszero\n      tag_209\n      jumpi\n        /* \"#utility.yul\":9508:9509   */\n      0x00\n        /* \"#utility.yul\":9494:9510   */\n      dup2\n      sstore\n        /* \"#utility.yul\":9475:9476   */\n      0x01\n        /* \"#utility.yul\":9464:9477   */\n      add\n        /* \"#utility.yul\":9431:9512   */\n      jump(tag_207)\n    tag_209:\n        /* \"#utility.yul\":9435:9438   */\n      pop\n      pop\n        /* \"#utility.yul\":9101:9522   */\n    tag_205:\n        /* \"#utility.yul\":9010:9528   */\n      pop\n      pop\n      pop\n      jump\t// out\n        /* \"#utility.yul\":9704:11003   */\n    tag_109:\n        /* \"#utility.yul\":9830:9833   */\n      dup2\n        /* \"#utility.yul\":9824:9834   */\n      mload\n        /* \"#utility.yul\":9857:9875   */\n      0xffffffffffffffff\n        /* \"#utility.yul\":9849:9855   */\n      dup2\n        /* \"#utility.yul\":9846:9876   */\n      gt\n        /* \"#utility.yul\":9843:9899   */\n      iszero\n      tag_213\n      jumpi\n        /* \"#utility.yul\":9879:9897   */\n      tag_213\n      tag_43\n      jump\t// in\n    tag_213:\n        /* \"#utility.yul\":9908:10005   */\n      tag_214\n        /* \"#utility.yul\":9998:10004   */\n      dup2\n        /* \"#utility.yul\":9958:9996   */\n      tag_215\n        /* \"#utility.yul\":9990:9994   */\n      dup5\n        /* \"#utility.yul\":9984:9995   */\n      sload\n        /* \"#utility.yul\":9958:9996   */\n      tag_55\n      jump\t// in\n    tag_215:\n        /* \"#utility.yul\":9952:9956   */\n      dup5\n        /* \"#utility.yul\":9908:10005   */\n      tag_141\n      jump\t// in\n    tag_214:\n        /* \"#utility.yul\":10054:10058   */\n      0x20\n        /* \"#utility.yul\":10085:10087   */\n      0x1f\n        /* \"#utility.yul\":10074:10088   */\n      dup3\n      gt\n        /* \"#utility.yul\":10102:10103   */\n      0x01\n        /* \"#utility.yul\":10097:10746   */\n      dup2\n      eq\n      tag_217\n      jumpi\n        /* \"#utility.yul\":10790:10791   */\n      0x00\n        /* \"#utility.yul\":10807:10813   */\n      dup4\n        /* \"#utility.yul\":10804:10893   */\n      iszero\n      tag_218\n      jumpi\n      pop\n        /* \"#utility.yul\":10859:10878   */\n      dup5\n      dup3\n      add\n        /* \"#utility.yul\":10853:10879   */\n      mload\n        /* \"#utility.yul\":10804:10893   */\n    tag_218:\n      not(0x00)\n        /* \"#utility.yul\":9661:9662   */\n      0x03\n        /* \"#utility.yul\":9657:9668   */\n      dup6\n      swap1\n      shl\n        /* \"#utility.yul\":9653:9677   */\n      shr\n        /* \"#utility.yul\":9649:9678   */\n      not\n        /* \"#utility.yul\":9639:9679   */\n      and\n        /* \"#utility.yul\":9685:9686   */\n      0x01\n        /* \"#utility.yul\":9681:9692   */\n      dup5\n      swap1\n      shl\n        /* \"#utility.yul\":9636:9693   */\n      or\n        /* \"#utility.yul\":10906:10987   */\n      dup5\n      sstore\n        /* \"#utility.yul\":10067:10997   */\n      jump(tag_209)\n        /* \"#utility.yul\":10097:10746   */\n    tag_217:\n        /* \"#utility.yul\":8957:8958   */\n      0x00\n        /* \"#utility.yul\":8950:8964   */\n      dup5\n      dup2\n      mstore\n        /* \"#utility.yul\":8994:8998   */\n      0x20\n        /* \"#utility.yul\":8981:8999   */\n      dup2\n      keccak256\n      not(0x1f)\n        /* \"#utility.yul\":10133:10153   */\n      dup6\n      and\n      swap2\n        /* \"#utility.yul\":10251:10473   */\n    tag_221:\n        /* \"#utility.yul\":10265:10272   */\n      dup3\n        /* \"#utility.yul\":10262:10263   */\n      dup2\n        /* \"#utility.yul\":10259:10273   */\n      lt\n        /* \"#utility.yul\":10251:10473   */\n      iszero\n      tag_223\n      jumpi\n        /* \"#utility.yul\":10347:10366   */\n      dup8\n      dup6\n      add\n        /* \"#utility.yul\":10341:10367   */\n      mload\n        /* \"#utility.yul\":10326:10368   */\n      dup3\n      sstore\n        /* \"#utility.yul\":10454:10458   */\n      0x20\n        /* \"#utility.yul\":10439:10459   */\n      swap5\n      dup6\n      add\n      swap5\n        /* \"#utility.yul\":10407:10408   */\n      0x01\n        /* \"#utility.yul\":10395:10409   */\n      swap1\n      swap3\n      add\n      swap2\n        /* \"#utility.yul\":10281:10293   */\n      add\n        /* \"#utility.yul\":10251:10473   */\n      jump(tag_221)\n    tag_223:\n        /* \"#utility.yul\":10255:10258   */\n      pop\n        /* \"#utility.yul\":10501:10507   */\n      dup5\n        /* \"#utility.yul\":10492:10499   */\n      dup3\n        /* \"#utility.yul\":10489:10508   */\n      lt\n        /* \"#utility.yul\":10486:10687   */\n      iszero\n      tag_224\n      jumpi\n        /* \"#utility.yul\":10562:10581   */\n      dup7\n      dup5\n      add\n        /* \"#utility.yul\":10556:10582   */\n      mload\n      not(0x00)\n        /* \"#utility.yul\":10645:10646   */\n      0x03\n        /* \"#utility.yul\":10641:10655   */\n      dup8\n      swap1\n      shl\n        /* \"#utility.yul\":10657:10660   */\n      0xf8\n        /* \"#utility.yul\":10637:10661   */\n      and\n        /* \"#utility.yul\":10633:10670   */\n      shr\n        /* \"#utility.yul\":10629:10671   */\n      not\n        /* \"#utility.yul\":10614:10672   */\n      and\n        /* \"#utility.yul\":10599:10673   */\n      dup2\n      sstore\n        /* \"#utility.yul\":10486:10687   */\n    tag_224:\n      pop\n      pop\n      pop\n      pop\n        /* \"#utility.yul\":10733:10734   */\n      0x01\n        /* \"#utility.yul\":10717:10731   */\n      swap1\n      dup2\n      shl\n        /* \"#utility.yul\":10713:10735   */\n      add\n        /* \"#utility.yul\":10700:10736   */\n      swap1\n      sstore\n      pop\n        /* \"#utility.yul\":9704:11003   */\n      jump\t// out\n        /* \"#utility.yul\":11008:11176   */\n    tag_113:\n        /* \"#utility.yul\":11081:11090   */\n      dup1\n      dup3\n      mul\n        /* \"#utility.yul\":11112:11121   */\n      dup2\n      iszero\n        /* \"#utility.yul\":11129:11144   */\n      dup3\n      dup3\n      div\n        /* \"#utility.yul\":11123:11145   */\n      dup5\n      eq\n        /* \"#utility.yul\":11109:11146   */\n      or\n        /* \"#utility.yul\":11099:11170   */\n      tag_227\n      jumpi\n        /* \"#utility.yul\":11150:11168   */\n      tag_227\n      tag_139\n      jump\t// in\n    tag_227:\n        /* \"#utility.yul\":11008:11176   */\n      swap3\n      swap2\n      pop\n      pop\n      jump\t// out\n        /* \"#utility.yul\":11181:11306   */\n    tag_115:\n        /* \"#utility.yul\":11246:11255   */\n      dup1\n      dup3\n      add\n        /* \"#utility.yul\":11267:11277   */\n      dup1\n      dup3\n      gt\n        /* \"#utility.yul\":11264:11300   */\n      iszero\n      tag_227\n      jumpi\n        /* \"#utility.yul\":11280:11298   */\n      tag_227\n      tag_139\n      jump\t// in\n        /* \"#utility.yul\":11311:11673   */\n    tag_117:\n        /* \"#utility.yul\":11516:11522   */\n      dup4\n        /* \"#utility.yul\":11505:11514   */\n      dup2\n        /* \"#utility.yul\":11498:11523   */\n      mstore\n        /* \"#utility.yul\":11559:11561   */\n      0x60\n        /* \"#utility.yul\":11554:11556   */\n      0x20\n        /* \"#utility.yul\":11543:11552   */\n      dup3\n        /* \"#utility.yul\":11539:11557   */\n      add\n        /* \"#utility.yul\":11532:11562   */\n      mstore\n        /* \"#utility.yul\":11479:11483   */\n      0x00\n        /* \"#utility.yul\":11579:11624   */\n      tag_232\n        /* \"#utility.yul\":11620:11622   */\n      0x60\n        /* \"#utility.yul\":11609:11618   */\n      dup4\n        /* \"#utility.yul\":11605:11623   */\n      add\n        /* \"#utility.yul\":11597:11603   */\n      dup6\n        /* \"#utility.yul\":11579:11624   */\n      tag_136\n      jump\t// in\n    tag_232:\n        /* \"#utility.yul\":11571:11624   */\n      swap1\n      pop\n        /* \"#utility.yul\":11660:11666   */\n      dup3\n        /* \"#utility.yul\":11655:11657   */\n      0x40\n        /* \"#utility.yul\":11644:11653   */\n      dup4\n        /* \"#utility.yul\":11640:11658   */\n      add\n        /* \"#utility.yul\":11633:11667   */\n      mstore\n        /* \"#utility.yul\":11311:11673   */\n      swap5\n      swap4\n      pop\n      pop\n      pop\n      pop\n      jump\t// out\n\n    auxdata: 0xa26469706673582212206088da1d79ed5ae1a2cb4bcaaa11ee19f58cdde3aa3fb4bd6ac2ebbe9f72a2bf64736f6c634300081e0033\n}\n",
				"bytecode": {
					"linkReferences": {},
					"object": "60806040525f5f553480156011575f5ffd5b50610dcf8061001f5f395ff3fe608060405234801561000f575f5ffd5b5060043610610060575f3560e01c80638a241f4c146100645780639207891d1461008d5780639a0040e4146100a3578063a6286870146100c5578063b384abef146100e5578063f8c860f4146100fa575b5f5ffd5b6100776100723660046108ab565b61010d565b60405161008491906108c2565b60405180910390f35b6100955f5481565b604051908152602001610084565b6100b66100b13660046108ab565b6101f0565b60405161008493929190610932565b6100d86100d33660046108ab565b6103ab565b60405161008491906109b0565b6100f86100f33660046109c9565b610526565b005b6100f8610108366004610a9a565b61069c565b5f8181526001602052604090206005015460609060ff166101495760405162461bcd60e51b815260040161014090610b9a565b60405180910390fd5b5f82815260016020819052604082209081015490919067ffffffffffffffff811115610177576101776109e9565b6040519080825280602002602001820160405280156101a0578160200160208202803683370190505b5090505f5b60018301548110156101e8575f81815260038401602052604090205482518390839081106101d5576101d5610bc2565b60209081029190910101526001016101a5565b509392505050565b5f81815260016020526040812060050154606091829160ff166102255760405162461bcd60e51b815260040161014090610b9a565b5f60015f8681526020019081526020015f209050805f0181600101826002015482805461025190610bd6565b80601f016020809104026020016040519081016040528092919081815260200182805461027d90610bd6565b80156102c85780601f1061029f576101008083540402835291602001916102c8565b820191905f5260205f20905b8154815290600101906020018083116102ab57829003601f168201915b5050505050925081805480602002602001604051908101604052809291908181526020015f905b82821015610397578382905f5260205f2001805461030c90610bd6565b80601f016020809104026020016040519081016040528092919081815260200182805461033890610bd6565b80156103835780601f1061035a57610100808354040283529160200191610383565b820191905f5260205f20905b81548152906001019060200180831161036657829003601f168201915b5050505050815260200190600101906102ef565b505050509150935093509350509193909250565b5f8181526001602052604090206005015460609060ff166103de5760405162461bcd60e51b815260040161014090610b9a565b5f828152600160205260409020600281015442116104325760405162461bcd60e51b8152602060048201526011602482015270506f6c6c207374696c6c2061637469766560781b6044820152606401610140565b5f80805b6001840154811015610477575f81815260038501602052604090205483101561046f575f81815260038501602052604090205492509050805b600101610436565b5082600101818154811061048d5761048d610bc2565b905f5260205f200180546104a090610bd6565b80601f01602080910402602001604051908101604052809291908181526020018280546104cc90610bd6565b80156105175780601f106104ee57610100808354040283529160200191610517565b820191905f5260205f20905b8154815290600101906020018083116104fa57829003601f168201915b50505050509350505050919050565b5f54821061056b5760405162461bcd60e51b8152602060048201526012602482015271141bdb1b08191bd95cdb89dd08195e1a5cdd60721b6044820152606401610140565b5f828152600160205260409020600281015442106105be5760405162461bcd60e51b815260206004820152601060248201526f159bdd1a5b99c81a185cc8195b99195960821b6044820152606401610140565b335f90815260048201602052604090205460ff16156106185760405162461bcd60e51b8152602060048201526016602482015275165bdd481a185d9948185b1c9958591e481d9bdd195960521b6044820152606401610140565b6001810154821061065c5760405162461bcd60e51b815260206004820152600e60248201526d24b73b30b634b21037b83a34b7b760911b6044820152606401610140565b5f828152600382016020526040812080549161067783610c22565b9091555050335f908152600490910160205260409020805460ff191660011790555050565b6002825110156106ee5760405162461bcd60e51b815260206004820152601b60248201527f4174206c656173742032206f7074696f6e7320726571756972656400000000006044820152606401610140565b5f811161073d5760405162461bcd60e51b815260206004820152601960248201527f4475726174696f6e206d75737420626520706f736974697665000000000000006044820152606401610140565b5f80548152600160205260409020806107568582610c86565b50825161076c90600183019060208601906107ed565b5061077882603c610d41565b6107829042610d5e565b6002820181905560058201805460ff191660011790555f546040517fc3ad3dd4f77bea708d7c21b918efa79c536b30c5048924662db7a2bd96f48316926107cc9291889190610d71565b60405180910390a15f805490806107e283610c22565b919050555050505050565b828054828255905f5260205f20908101928215610831579160200282015b8281111561083157825182906108219082610c86565b509160200191906001019061080b565b5061083d929150610841565b5090565b8082111561083d575f610854828261085d565b50600101610841565b50805461086990610bd6565b5f825580601f10610878575050565b601f0160209004905f5260205f20908101906108949190610897565b50565b5b8082111561083d575f8155600101610898565b5f602082840312156108bb575f5ffd5b5035919050565b602080825282518282018190525f918401906040840190835b818110156108f95783518352602093840193909201916001016108db565b509095945050505050565b5f81518084528060208401602086015e5f602082860101526020601f19601f83011685010191505092915050565b606081525f6109446060830186610904565b828103602084015280855180835260208301915060208160051b840101602088015f5b8381101561099957601f19868403018552610983838351610904565b6020958601959093509190910190600101610967565b505080945050505050826040830152949350505050565b602081525f6109c26020830184610904565b9392505050565b5f5f604083850312156109da575f5ffd5b50508035926020909101359150565b634e487b7160e01b5f52604160045260245ffd5b604051601f8201601f1916810167ffffffffffffffff81118282101715610a2657610a266109e9565b604052919050565b5f82601f830112610a3d575f5ffd5b813567ffffffffffffffff811115610a5757610a576109e9565b610a6a601f8201601f19166020016109fd565b818152846020838601011115610a7e575f5ffd5b816020850160208301375f918101602001919091529392505050565b5f5f5f60608486031215610aac575f5ffd5b833567ffffffffffffffff811115610ac2575f5ffd5b610ace86828701610a2e565b935050602084013567ffffffffffffffff811115610aea575f5ffd5b8401601f81018613610afa575f5ffd5b803567ffffffffffffffff811115610b1457610b146109e9565b8060051b610b24602082016109fd565b91825260208184018101929081019089841115610b3f575f5ffd5b6020850192505b83831015610b8557823567ffffffffffffffff811115610b64575f5ffd5b610b738b602083890101610a2e565b83525060209283019290910190610b46565b96999698505050506040949094013593505050565b6020808252600e908201526d141bdb1b081b9bdd08199bdd5b9960921b604082015260600190565b634e487b7160e01b5f52603260045260245ffd5b600181811c90821680610bea57607f821691505b602082108103610c0857634e487b7160e01b5f52602260045260245ffd5b50919050565b634e487b7160e01b5f52601160045260245ffd5b5f60018201610c3357610c33610c0e565b5060010190565b601f821115610c8157805f5260205f20601f840160051c81016020851015610c5f5750805b601f840160051c820191505b81811015610c7e575f8155600101610c6b565b50505b505050565b815167ffffffffffffffff811115610ca057610ca06109e9565b610cb481610cae8454610bd6565b84610c3a565b6020601f821160018114610ce6575f8315610ccf5750848201515b5f19600385901b1c1916600184901b178455610c7e565b5f84815260208120601f198516915b82811015610d155787850151825560209485019460019092019101610cf5565b5084821015610d3257868401515f19600387901b60f8161c191681555b50505050600190811b01905550565b8082028115828204841417610d5857610d58610c0e565b92915050565b80820180821115610d5857610d58610c0e565b838152606060208201525f610d896060830185610904565b905082604083015294935050505056fea26469706673582212206088da1d79ed5ae1a2cb4bcaaa11ee19f58cdde3aa3fb4bd6ac2ebbe9f72a2bf64736f6c634300081e0033",
					"opcodes": "PUSH1 0x80 PUSH1 0x40 MSTORE PUSH0 PUSH0 SSTORE CALLVALUE DUP1 ISZERO PUSH1 0x11 JUMPI PUSH0 PUSH0 REVERT JUMPDEST POP PUSH2 0xDCF DUP1 PUSH2 0x1F PUSH0 CODECOPY PUSH0 RETURN INVALID PUSH1 0x80 PUSH1 0x40 MSTORE CALLVALUE DUP1 ISZERO PUSH2 0xF JUMPI PUSH0 PUSH0 REVERT JUMPDEST POP PUSH1 0x4 CALLDATASIZE LT PUSH2 0x60 JUMPI PUSH0 CALLDATALOAD PUSH1 0xE0 SHR DUP1 PUSH4 0x8A241F4C EQ PUSH2 0x64 JUMPI DUP1 PUSH4 0x9207891D EQ PUSH2 0x8D JUMPI DUP1 PUSH4 0x9A0040E4 EQ PUSH2 0xA3 JUMPI DUP1 PUSH4 0xA6286870 EQ PUSH2 0xC5 JUMPI DUP1 PUSH4 0xB384ABEF EQ PUSH2 0xE5 JUMPI DUP1 PUSH4 0xF8C860F4 EQ PUSH2 0xFA JUMPI JUMPDEST PUSH0 PUSH0 REVERT JUMPDEST PUSH2 0x77 PUSH2 0x72 CALLDATASIZE PUSH1 0x4 PUSH2 0x8AB JUMP JUMPDEST PUSH2 0x10D JUMP JUMPDEST PUSH1 0x40 MLOAD PUSH2 0x84 SWAP2 SWAP1 PUSH2 0x8C2 JUMP JUMPDEST PUSH1 0x40 MLOAD DUP1 SWAP2 SUB SWAP1 RETURN JUMPDEST PUSH2 0x95 PUSH0 SLOAD DUP2 JUMP JUMPDEST PUSH1 0x40 MLOAD SWAP1 DUP2 MSTORE PUSH1 0x20 ADD PUSH2 0x84 JUMP JUMPDEST PUSH2 0xB6 PUSH2 0xB1 CALLDATASIZE PUSH1 0x4 PUSH2 0x8AB JUMP JUMPDEST PUSH2 0x1F0 JUMP JUMPDEST PUSH1 0x40 MLOAD PUSH2 0x84 SWAP4 SWAP3 SWAP2 SWAP1 PUSH2 0x932 JUMP JUMPDEST PUSH2 0xD8 PUSH2 0xD3 CALLDATASIZE PUSH1 0x4 PUSH2 0x8AB JUMP JUMPDEST PUSH2 0x3AB JUMP JUMPDEST PUSH1 0x40 MLOAD PUSH2 0x84 SWAP2 SWAP1 PUSH2 0x9B0 JUMP JUMPDEST PUSH2 0xF8 PUSH2 0xF3 CALLDATASIZE PUSH1 0x4 PUSH2 0x9C9 JUMP JUMPDEST PUSH2 0x526 JUMP JUMPDEST STOP JUMPDEST PUSH2 0xF8 PUSH2 0x108 CALLDATASIZE PUSH1 0x4 PUSH2 0xA9A JUMP JUMPDEST PUSH2 0x69C JUMP JUMPDEST PUSH0 DUP2 DUP2 MSTORE PUSH1 0x1 PUSH1 0x20 MSTORE PUSH1 0x40 SWAP1 KECCAK256 PUSH1 0x5 ADD SLOAD PUSH1 0x60 SWAP1 PUSH1 0xFF AND PUSH2 0x149 JUMPI PUSH1 0x40 MLOAD PUSH3 0x461BCD PUSH1 0xE5 SHL DUP2 MSTORE PUSH1 0x4 ADD PUSH2 0x140 SWAP1 PUSH2 0xB9A JUMP JUMPDEST PUSH1 0x40 MLOAD DUP1 SWAP2 SUB SWAP1 REVERT JUMPDEST PUSH0 DUP3 DUP2 MSTORE PUSH1 0x1 PUSH1 0x20 DUP2 SWAP1 MSTORE PUSH1 0x40 DUP3 KECCAK256 SWAP1 DUP2 ADD SLOAD SWAP1 SWAP2 SWAP1 PUSH8 0xFFFFFFFFFFFFFFFF DUP2 GT ISZERO PUSH2 0x177 JUMPI PUSH2 0x177 PUSH2 0x9E9 JUMP JUMPDEST PUSH1 0x40 MLOAD SWAP1 DUP1 DUP3 MSTORE DUP1 PUSH1 0x20 MUL PUSH1 0x20 ADD DUP3 ADD PUSH1 0x40 MSTORE DUP1 ISZERO PUSH2 0x1A0 JUMPI DUP2 PUSH1 0x20 ADD PUSH1 0x20 DUP3 MUL DUP1 CALLDATASIZE DUP4 CALLDATACOPY ADD SWAP1 POP JUMPDEST POP SWAP1 POP PUSH0 JUMPDEST PUSH1 0x1 DUP4 ADD SLOAD DUP2 LT ISZERO PUSH2 0x1E8 JUMPI PUSH0 DUP2 DUP2 MSTORE PUSH1 0x3 DUP5 ADD PUSH1 0x20 MSTORE PUSH1 0x40 SWAP1 KECCAK256 SLOAD DUP3 MLOAD DUP4 SWAP1 DUP4 SWAP1 DUP2 LT PUSH2 0x1D5 JUMPI PUSH2 0x1D5 PUSH2 0xBC2 JUMP JUMPDEST PUSH1 0x20 SWAP1 DUP2 MUL SWAP2 SWAP1 SWAP2 ADD ADD MSTORE PUSH1 0x1 ADD PUSH2 0x1A5 JUMP JUMPDEST POP SWAP4 SWAP3 POP POP POP JUMP JUMPDEST PUSH0 DUP2 DUP2 MSTORE PUSH1 0x1 PUSH1 0x20 MSTORE PUSH1 0x40 DUP2 KECCAK256 PUSH1 0x5 ADD SLOAD PUSH1 0x60 SWAP2 DUP3 SWAP2 PUSH1 0xFF AND PUSH2 0x225 JUMPI PUSH1 0x40 MLOAD PUSH3 0x461BCD PUSH1 0xE5 SHL DUP2 MSTORE PUSH1 0x4 ADD PUSH2 0x140 SWAP1 PUSH2 0xB9A JUMP JUMPDEST PUSH0 PUSH1 0x1 PUSH0 DUP7 DUP2 MSTORE PUSH1 0x20 ADD SWAP1 DUP2 MSTORE PUSH1 0x20 ADD PUSH0 KECCAK256 SWAP1 POP DUP1 PUSH0 ADD DUP2 PUSH1 0x1 ADD DUP3 PUSH1 0x2 ADD SLOAD DUP3 DUP1 SLOAD PUSH2 0x251 SWAP1 PUSH2 0xBD6 JUMP JUMPDEST DUP1 PUSH1 0x1F ADD PUSH1 0x20 DUP1 SWAP2 DIV MUL PUSH1 0x20 ADD PUSH1 0x40 MLOAD SWAP1 DUP2 ADD PUSH1 0x40 MSTORE DUP1 SWAP3 SWAP2 SWAP1 DUP2 DUP2 MSTORE PUSH1 0x20 ADD DUP3 DUP1 SLOAD PUSH2 0x27D SWAP1 PUSH2 0xBD6 JUMP JUMPDEST DUP1 ISZERO PUSH2 0x2C8 JUMPI DUP1 PUSH1 0x1F LT PUSH2 0x29F JUMPI PUSH2 0x100 DUP1 DUP4 SLOAD DIV MUL DUP4 MSTORE SWAP2 PUSH1 0x20 ADD SWAP2 PUSH2 0x2C8 JUMP JUMPDEST DUP3 ADD SWAP2 SWAP1 PUSH0 MSTORE PUSH1 0x20 PUSH0 KECCAK256 SWAP1 JUMPDEST DUP2 SLOAD DUP2 MSTORE SWAP1 PUSH1 0x1 ADD SWAP1 PUSH1 0x20 ADD DUP1 DUP4 GT PUSH2 0x2AB JUMPI DUP3 SWAP1 SUB PUSH1 0x1F AND DUP3 ADD SWAP2 JUMPDEST POP POP POP POP POP SWAP3 POP DUP2 DUP1 SLOAD DUP1 PUSH1 0x20 MUL PUSH1 0x20 ADD PUSH1 0x40 MLOAD SWAP1 DUP2 ADD PUSH1 0x40 MSTORE DUP1 SWAP3 SWAP2 SWAP1 DUP2 DUP2 MSTORE PUSH1 0x20 ADD PUSH0 SWAP1 JUMPDEST DUP3 DUP3 LT ISZERO PUSH2 0x397 JUMPI DUP4 DUP3 SWAP1 PUSH0 MSTORE PUSH1 0x20 PUSH0 KECCAK256 ADD DUP1 SLOAD PUSH2 0x30C SWAP1 PUSH2 0xBD6 JUMP JUMPDEST DUP1 PUSH1 0x1F ADD PUSH1 0x20 DUP1 SWAP2 DIV MUL PUSH1 0x20 ADD PUSH1 0x40 MLOAD SWAP1 DUP2 ADD PUSH1 0x40 MSTORE DUP1 SWAP3 SWAP2 SWAP1 DUP2 DUP2 MSTORE PUSH1 0x20 ADD DUP3 DUP1 SLOAD PUSH2 0x338 SWAP1 PUSH2 0xBD6 JUMP JUMPDEST DUP1 ISZERO PUSH2 0x383 JUMPI DUP1 PUSH1 0x1F LT PUSH2 0x35A JUMPI PUSH2 0x100 DUP1 DUP4 SLOAD DIV MUL DUP4 MSTORE SWAP2 PUSH1 0x20 ADD SWAP2 PUSH2 0x383 JUMP JUMPDEST DUP3 ADD SWAP2 SWAP1 PUSH0 MSTORE PUSH1 0x20 PUSH0 KECCAK256 SWAP1 JUMPDEST DUP2 SLOAD DUP2 MSTORE SWAP1 PUSH1 0x1 ADD SWAP1 PUSH1 0x20 ADD DUP1 DUP4 GT PUSH2 0x366 JUMPI DUP3 SWAP1 SUB PUSH1 0x1F AND DUP3 ADD SWAP2 JUMPDEST POP POP POP POP POP DUP2 MSTORE PUSH1 0x20 ADD SWAP1 PUSH1 0x1 ADD SWAP1 PUSH2 0x2EF JUMP JUMPDEST POP POP POP POP SWAP2 POP SWAP4 POP SWAP4 POP SWAP4 POP POP SWAP2 SWAP4 SWAP1 SWAP3 POP JUMP JUMPDEST PUSH0 DUP2 DUP2 MSTORE PUSH1 0x1 PUSH1 0x20 MSTORE PUSH1 0x40 SWAP1 KECCAK256 PUSH1 0x5 ADD SLOAD PUSH1 0x60 SWAP1 PUSH1 0xFF AND PUSH2 0x3DE JUMPI PUSH1 0x40 MLOAD PUSH3 0x461BCD PUSH1 0xE5 SHL DUP2 MSTORE PUSH1 0x4 ADD PUSH2 0x140 SWAP1 PUSH2 0xB9A JUMP JUMPDEST PUSH0 DUP3 DUP2 MSTORE PUSH1 0x1 PUSH1 0x20 MSTORE PUSH1 0x40 SWAP1 KECCAK256 PUSH1 0x2 DUP2 ADD SLOAD TIMESTAMP GT PUSH2 0x432 JUMPI PUSH1 0x40 MLOAD PUSH3 0x461BCD PUSH1 0xE5 SHL DUP2 MSTORE PUSH1 0x20 PUSH1 0x4 DUP3 ADD MSTORE PUSH1 0x11 PUSH1 0x24 DUP3 ADD MSTORE PUSH17 0x506F6C6C207374696C6C20616374697665 PUSH1 0x78 SHL PUSH1 0x44 DUP3 ADD MSTORE PUSH1 0x64 ADD PUSH2 0x140 JUMP JUMPDEST PUSH0 DUP1 DUP1 JUMPDEST PUSH1 0x1 DUP5 ADD SLOAD DUP2 LT ISZERO PUSH2 0x477 JUMPI PUSH0 DUP2 DUP2 MSTORE PUSH1 0x3 DUP6 ADD PUSH1 0x20 MSTORE PUSH1 0x40 SWAP1 KECCAK256 SLOAD DUP4 LT ISZERO PUSH2 0x46F JUMPI PUSH0 DUP2 DUP2 MSTORE PUSH1 0x3 DUP6 ADD PUSH1 0x20 MSTORE PUSH1 0x40 SWAP1 KECCAK256 SLOAD SWAP3 POP SWAP1 POP DUP1 JUMPDEST PUSH1 0x1 ADD PUSH2 0x436 JUMP JUMPDEST POP DUP3 PUSH1 0x1 ADD DUP2 DUP2 SLOAD DUP2 LT PUSH2 0x48D JUMPI PUSH2 0x48D PUSH2 0xBC2 JUMP JUMPDEST SWAP1 PUSH0 MSTORE PUSH1 0x20 PUSH0 KECCAK256 ADD DUP1 SLOAD PUSH2 0x4A0 SWAP1 PUSH2 0xBD6 JUMP JUMPDEST DUP1 PUSH1 0x1F ADD PUSH1 0x20 DUP1 SWAP2 DIV MUL PUSH1 0x20 ADD PUSH1 0x40 MLOAD SWAP1 DUP2 ADD PUSH1 0x40 MSTORE DUP1 SWAP3 SWAP2 SWAP1 DUP2 DUP2 MSTORE PUSH1 0x20 ADD DUP3 DUP1 SLOAD PUSH2 0x4CC SWAP1 PUSH2 0xBD6 JUMP JUMPDEST DUP1 ISZERO PUSH2 0x517 JUMPI DUP1 PUSH1 0x1F LT PUSH2 0x4EE JUMPI PUSH2 0x100 DUP1 DUP4 SLOAD DIV MUL DUP4 MSTORE SWAP2 PUSH1 0x20 ADD SWAP2 PUSH2 0x517 JUMP JUMPDEST DUP3 ADD SWAP2 SWAP1 PUSH0 MSTORE PUSH1 0x20 PUSH0 KECCAK256 SWAP1 JUMPDEST DUP2 SLOAD DUP2 MSTORE SWAP1 PUSH1 0x1 ADD SWAP1 PUSH1 0x20 ADD DUP1 DUP4 GT PUSH2 0x4FA JUMPI DUP3 SWAP1 SUB PUSH1 0x1F AND DUP3 ADD SWAP2 JUMPDEST POP POP POP POP POP SWAP4 POP POP POP POP SWAP2 SWAP1 POP JUMP JUMPDEST PUSH0 SLOAD DUP3 LT PUSH2 0x56B JUMPI PUSH1 0x40 MLOAD PUSH3 0x461BCD PUSH1 0xE5 SHL DUP2 MSTORE PUSH1 0x20 PUSH1 0x4 DUP3 ADD MSTORE PUSH1 0x12 PUSH1 0x24 DUP3 ADD MSTORE PUSH18 0x141BDB1B08191BD95CDB89DD08195E1A5CDD PUSH1 0x72 SHL PUSH1 0x44 DUP3 ADD MSTORE PUSH1 0x64 ADD PUSH2 0x140 JUMP JUMPDEST PUSH0 DUP3 DUP2 MSTORE PUSH1 0x1 PUSH1 0x20 MSTORE PUSH1 0x40 SWAP1 KECCAK256 PUSH1 0x2 DUP2 ADD SLOAD TIMESTAMP LT PUSH2 0x5BE JUMPI PUSH1 0x40 MLOAD PUSH3 0x461BCD PUSH1 0xE5 SHL DUP2 MSTORE PUSH1 0x20 PUSH1 0x4 DUP3 ADD MSTORE PUSH1 0x10 PUSH1 0x24 DUP3 ADD MSTORE PUSH16 0x159BDD1A5B99C81A185CC8195B991959 PUSH1 0x82 SHL PUSH1 0x44 DUP3 ADD MSTORE PUSH1 0x64 ADD PUSH2 0x140 JUMP JUMPDEST CALLER PUSH0 SWAP1 DUP2 MSTORE PUSH1 0x4 DUP3 ADD PUSH1 0x20 MSTORE PUSH1 0x40 SWAP1 KECCAK256 SLOAD PUSH1 0xFF AND ISZERO PUSH2 0x618 JUMPI PUSH1 0x40 MLOAD PUSH3 0x461BCD PUSH1 0xE5 SHL DUP2 MSTORE PUSH1 0x20 PUSH1 0x4 DUP3 ADD MSTORE PUSH1 0x16 PUSH1 0x24 DUP3 ADD MSTORE PUSH22 0x165BDD481A185D9948185B1C9958591E481D9BDD1959 PUSH1 0x52 SHL PUSH1 0x44 DUP3 ADD MSTORE PUSH1 0x64 ADD PUSH2 0x140 JUMP JUMPDEST PUSH1 0x1 DUP2 ADD SLOAD DUP3 LT PUSH2 0x65C JUMPI PUSH1 0x40 MLOAD PUSH3 0x461BCD PUSH1 0xE5 SHL DUP2 MSTORE PUSH1 0x20 PUSH1 0x4 DUP3 ADD MSTORE PUSH1 0xE PUSH1 0x24 DUP3 ADD MSTORE PUSH14 0x24B73B30B634B21037B83A34B7B7 PUSH1 0x91 SHL PUSH1 0x44 DUP3 ADD MSTORE PUSH1 0x64 ADD PUSH2 0x140 JUMP JUMPDEST PUSH0 DUP3 DUP2 MSTORE PUSH1 0x3 DUP3 ADD PUSH1 0x20 MSTORE PUSH1 0x40 DUP2 KECCAK256 DUP1 SLOAD SWAP2 PUSH2 0x677 DUP4 PUSH2 0xC22 JUMP JUMPDEST SWAP1 SWAP2 SSTORE POP POP CALLER PUSH0 SWAP1 DUP2 MSTORE PUSH1 0x4 SWAP1 SWAP2 ADD PUSH1 0x20 MSTORE PUSH1 0x40 SWAP1 KECCAK256 DUP1 SLOAD PUSH1 0xFF NOT AND PUSH1 0x1 OR SWAP1 SSTORE POP POP JUMP JUMPDEST PUSH1 0x2 DUP3 MLOAD LT ISZERO PUSH2 0x6EE JUMPI PUSH1 0x40 MLOAD PUSH3 0x461BCD PUSH1 0xE5 SHL DUP2 MSTORE PUSH1 0x20 PUSH1 0x4 DUP3 ADD MSTORE PUSH1 0x1B PUSH1 0x24 DUP3 ADD MSTORE PUSH32 0x4174206C656173742032206F7074696F6E732072657175697265640000000000 PUSH1 0x44 DUP3 ADD MSTORE PUSH1 0x64 ADD PUSH2 0x140 JUMP JUMPDEST PUSH0 DUP2 GT PUSH2 0x73D JUMPI PUSH1 0x40 MLOAD PUSH3 0x461BCD PUSH1 0xE5 SHL DUP2 MSTORE PUSH1 0x20 PUSH1 0x4 DUP3 ADD MSTORE PUSH1 0x19 PUSH1 0x24 DUP3 ADD MSTORE PUSH32 0x4475726174696F6E206D75737420626520706F73697469766500000000000000 PUSH1 0x44 DUP3 ADD MSTORE PUSH1 0x64 ADD PUSH2 0x140 JUMP JUMPDEST PUSH0 DUP1 SLOAD DUP2 MSTORE PUSH1 0x1 PUSH1 0x20 MSTORE PUSH1 0x40 SWAP1 KECCAK256 DUP1 PUSH2 0x756 DUP6 DUP3 PUSH2 0xC86 JUMP JUMPDEST POP DUP3 MLOAD PUSH2 0x76C SWAP1 PUSH1 0x1 DUP4 ADD SWAP1 PUSH1 0x20 DUP7 ADD SWAP1 PUSH2 0x7ED JUMP JUMPDEST POP PUSH2 0x778 DUP3 PUSH1 0x3C PUSH2 0xD41 JUMP JUMPDEST PUSH2 0x782 SWAP1 TIMESTAMP PUSH2 0xD5E JUMP JUMPDEST PUSH1 0x2 DUP3 ADD DUP2 SWAP1 SSTORE PUSH1 0x5 DUP3 ADD DUP1 SLOAD PUSH1 0xFF NOT AND PUSH1 0x1 OR SWAP1 SSTORE PUSH0 SLOAD PUSH1 0x40 MLOAD PUSH32 0xC3AD3DD4F77BEA708D7C21B918EFA79C536B30C5048924662DB7A2BD96F48316 SWAP3 PUSH2 0x7CC SWAP3 SWAP2 DUP9 SWAP2 SWAP1 PUSH2 0xD71 JUMP JUMPDEST PUSH1 0x40 MLOAD DUP1 SWAP2 SUB SWAP1 LOG1 PUSH0 DUP1 SLOAD SWAP1 DUP1 PUSH2 0x7E2 DUP4 PUSH2 0xC22 JUMP JUMPDEST SWAP2 SWAP1 POP SSTORE POP POP POP POP POP JUMP JUMPDEST DUP3 DUP1 SLOAD DUP3 DUP3 SSTORE SWAP1 PUSH0 MSTORE PUSH1 0x20 PUSH0 KECCAK256 SWAP1 DUP2 ADD SWAP3 DUP3 ISZERO PUSH2 0x831 JUMPI SWAP2 PUSH1 0x20 MUL DUP3 ADD JUMPDEST DUP3 DUP2 GT ISZERO PUSH2 0x831 JUMPI DUP3 MLOAD DUP3 SWAP1 PUSH2 0x821 SWAP1 DUP3 PUSH2 0xC86 JUMP JUMPDEST POP SWAP2 PUSH1 0x20 ADD SWAP2 SWAP1 PUSH1 0x1 ADD SWAP1 PUSH2 0x80B JUMP JUMPDEST POP PUSH2 0x83D SWAP3 SWAP2 POP PUSH2 0x841 JUMP JUMPDEST POP SWAP1 JUMP JUMPDEST DUP1 DUP3 GT ISZERO PUSH2 0x83D JUMPI PUSH0 PUSH2 0x854 DUP3 DUP3 PUSH2 0x85D JUMP JUMPDEST POP PUSH1 0x1 ADD PUSH2 0x841 JUMP JUMPDEST POP DUP1 SLOAD PUSH2 0x869 SWAP1 PUSH2 0xBD6 JUMP JUMPDEST PUSH0 DUP3 SSTORE DUP1 PUSH1 0x1F LT PUSH2 0x878 JUMPI POP POP JUMP JUMPDEST PUSH1 0x1F ADD PUSH1 0x20 SWAP1 DIV SWAP1 PUSH0 MSTORE PUSH1 0x20 PUSH0 KECCAK256 SWAP1 DUP2 ADD SWAP1 PUSH2 0x894 SWAP2 SWAP1 PUSH2 0x897 JUMP JUMPDEST POP JUMP JUMPDEST JUMPDEST DUP1 DUP3 GT ISZERO PUSH2 0x83D JUMPI PUSH0 DUP2 SSTORE PUSH1 0x1 ADD PUSH2 0x898 JUMP JUMPDEST PUSH0 PUSH1 0x20 DUP3 DUP5 SUB SLT ISZERO PUSH2 0x8BB JUMPI PUSH0 PUSH0 REVERT JUMPDEST POP CALLDATALOAD SWAP2 SWAP1 POP JUMP JUMPDEST PUSH1 0x20 DUP1 DUP3 MSTORE DUP3 MLOAD DUP3 DUP3 ADD DUP2 SWAP1 MSTORE PUSH0 SWAP2 DUP5 ADD SWAP1 PUSH1 0x40 DUP5 ADD SWAP1 DUP4 JUMPDEST DUP2 DUP2 LT ISZERO PUSH2 0x8F9 JUMPI DUP4 MLOAD DUP4 MSTORE PUSH1 0x20 SWAP4 DUP5 ADD SWAP4 SWAP1 SWAP3 ADD SWAP2 PUSH1 0x1 ADD PUSH2 0x8DB JUMP JUMPDEST POP SWAP1 SWAP6 SWAP5 POP POP POP POP POP JUMP JUMPDEST PUSH0 DUP2 MLOAD DUP1 DUP5 MSTORE DUP1 PUSH1 0x20 DUP5 ADD PUSH1 0x20 DUP7 ADD MCOPY PUSH0 PUSH1 0x20 DUP3 DUP7 ADD ADD MSTORE PUSH1 0x20 PUSH1 0x1F NOT PUSH1 0x1F DUP4 ADD AND DUP6 ADD ADD SWAP2 POP POP SWAP3 SWAP2 POP POP JUMP JUMPDEST PUSH1 0x60 DUP2 MSTORE PUSH0 PUSH2 0x944 PUSH1 0x60 DUP4 ADD DUP7 PUSH2 0x904 JUMP JUMPDEST DUP3 DUP2 SUB PUSH1 0x20 DUP5 ADD MSTORE DUP1 DUP6 MLOAD DUP1 DUP4 MSTORE PUSH1 0x20 DUP4 ADD SWAP2 POP PUSH1 0x20 DUP2 PUSH1 0x5 SHL DUP5 ADD ADD PUSH1 0x20 DUP9 ADD PUSH0 JUMPDEST DUP4 DUP2 LT ISZERO PUSH2 0x999 JUMPI PUSH1 0x1F NOT DUP7 DUP5 SUB ADD DUP6 MSTORE PUSH2 0x983 DUP4 DUP4 MLOAD PUSH2 0x904 JUMP JUMPDEST PUSH1 0x20 SWAP6 DUP7 ADD SWAP6 SWAP1 SWAP4 POP SWAP2 SWAP1 SWAP2 ADD SWAP1 PUSH1 0x1 ADD PUSH2 0x967 JUMP JUMPDEST POP POP DUP1 SWAP5 POP POP POP POP POP DUP3 PUSH1 0x40 DUP4 ADD MSTORE SWAP5 SWAP4 POP POP POP POP JUMP JUMPDEST PUSH1 0x20 DUP2 MSTORE PUSH0 PUSH2 0x9C2 PUSH1 0x20 DUP4 ADD DUP5 PUSH2 0x904 JUMP JUMPDEST SWAP4 SWAP3 POP POP POP JUMP JUMPDEST PUSH0 PUSH0 PUSH1 0x40 DUP4 DUP6 SUB SLT ISZERO PUSH2 0x9DA JUMPI PUSH0 PUSH0 REVERT JUMPDEST POP POP DUP1 CALLDATALOAD SWAP3 PUSH1 0x20 SWAP1 SWAP2 ADD CALLDATALOAD SWAP2 POP JUMP JUMPDEST PUSH4 0x4E487B71 PUSH1 0xE0 SHL PUSH0 MSTORE PUSH1 0x41 PUSH1 0x4 MSTORE PUSH1 0x24 PUSH0 REVERT JUMPDEST PUSH1 0x40 MLOAD PUSH1 0x1F DUP3 ADD PUSH1 0x1F NOT AND DUP2 ADD PUSH8 0xFFFFFFFFFFFFFFFF DUP2 GT DUP3 DUP3 LT OR ISZERO PUSH2 0xA26 JUMPI PUSH2 0xA26 PUSH2 0x9E9 JUMP JUMPDEST PUSH1 0x40 MSTORE SWAP2 SWAP1 POP JUMP JUMPDEST PUSH0 DUP3 PUSH1 0x1F DUP4 ADD SLT PUSH2 0xA3D JUMPI PUSH0 PUSH0 REVERT JUMPDEST DUP2 CALLDATALOAD PUSH8 0xFFFFFFFFFFFFFFFF DUP2 GT ISZERO PUSH2 0xA57 JUMPI PUSH2 0xA57 PUSH2 0x9E9 JUMP JUMPDEST PUSH2 0xA6A PUSH1 0x1F DUP3 ADD PUSH1 0x1F NOT AND PUSH1 0x20 ADD PUSH2 0x9FD JUMP JUMPDEST DUP2 DUP2 MSTORE DUP5 PUSH1 0x20 DUP4 DUP7 ADD ADD GT ISZERO PUSH2 0xA7E JUMPI PUSH0 PUSH0 REVERT JUMPDEST DUP2 PUSH1 0x20 DUP6 ADD PUSH1 0x20 DUP4 ADD CALLDATACOPY PUSH0 SWAP2 DUP2 ADD PUSH1 0x20 ADD SWAP2 SWAP1 SWAP2 MSTORE SWAP4 SWAP3 POP POP POP JUMP JUMPDEST PUSH0 PUSH0 PUSH0 PUSH1 0x60 DUP5 DUP7 SUB SLT ISZERO PUSH2 0xAAC JUMPI PUSH0 PUSH0 REVERT JUMPDEST DUP4 CALLDATALOAD PUSH8 0xFFFFFFFFFFFFFFFF DUP2 GT ISZERO PUSH2 0xAC2 JUMPI PUSH0 PUSH0 REVERT JUMPDEST PUSH2 0xACE DUP7 DUP3 DUP8 ADD PUSH2 0xA2E JUMP JUMPDEST SWAP4 POP POP PUSH1 0x20 DUP5 ADD CALLDATALOAD PUSH8 0xFFFFFFFFFFFFFFFF DUP2 GT ISZERO PUSH2 0xAEA JUMPI PUSH0 PUSH0 REVERT JUMPDEST DUP5 ADD PUSH1 0x1F DUP2 ADD DUP7 SGT PUSH2 0xAFA JUMPI PUSH0 PUSH0 REVERT JUMPDEST DUP1 CALLDATALOAD PUSH8 0xFFFFFFFFFFFFFFFF DUP2 GT ISZERO PUSH2 0xB14 JUMPI PUSH2 0xB14 PUSH2 0x9E9 JUMP JUMPDEST DUP1 PUSH1 0x5 SHL PUSH2 0xB24 PUSH1 0x20 DUP3 ADD PUSH2 0x9FD JUMP JUMPDEST SWAP2 DUP3 MSTORE PUSH1 0x20 DUP2 DUP5 ADD DUP2 ADD SWAP3 SWAP1 DUP2 ADD SWAP1 DUP10 DUP5 GT ISZERO PUSH2 0xB3F JUMPI PUSH0 PUSH0 REVERT JUMPDEST PUSH1 0x20 DUP6 ADD SWAP3 POP JUMPDEST DUP4 DUP4 LT ISZERO PUSH2 0xB85 JUMPI DUP3 CALLDATALOAD PUSH8 0xFFFFFFFFFFFFFFFF DUP2 GT ISZERO PUSH2 0xB64 JUMPI PUSH0 PUSH0 REVERT JUMPDEST PUSH2 0xB73 DUP12 PUSH1 0x20 DUP4 DUP10 ADD ADD PUSH2 0xA2E JUMP JUMPDEST DUP4 MSTORE POP PUSH1 0x20 SWAP3 DUP4 ADD SWAP3 SWAP1 SWAP2 ADD SWAP1 PUSH2 0xB46 JUMP JUMPDEST SWAP7 SWAP10 SWAP7 SWAP9 POP POP POP POP PUSH1 0x40 SWAP5 SWAP1 SWAP5 ADD CALLDATALOAD SWAP4 POP POP POP JUMP JUMPDEST PUSH1 0x20 DUP1 DUP3 MSTORE PUSH1 0xE SWAP1 DUP3 ADD MSTORE PUSH14 0x141BDB1B081B9BDD08199BDD5B99 PUSH1 0x92 SHL PUSH1 0x40 DUP3 ADD MSTORE PUSH1 0x60 ADD SWAP1 JUMP JUMPDEST PUSH4 0x4E487B71 PUSH1 0xE0 SHL PUSH0 MSTORE PUSH1 0x32 PUSH1 0x4 MSTORE PUSH1 0x24 PUSH0 REVERT JUMPDEST PUSH1 0x1 DUP2 DUP2 SHR SWAP1 DUP3 AND DUP1 PUSH2 0xBEA JUMPI PUSH1 0x7F DUP3 AND SWAP2 POP JUMPDEST PUSH1 0x20 DUP3 LT DUP2 SUB PUSH2 0xC08 JUMPI PUSH4 0x4E487B71 PUSH1 0xE0 SHL PUSH0 MSTORE PUSH1 0x22 PUSH1 0x4 MSTORE PUSH1 0x24 PUSH0 REVERT JUMPDEST POP SWAP2 SWAP1 POP JUMP JUMPDEST PUSH4 0x4E487B71 PUSH1 0xE0 SHL PUSH0 MSTORE PUSH1 0x11 PUSH1 0x4 MSTORE PUSH1 0x24 PUSH0 REVERT JUMPDEST PUSH0 PUSH1 0x1 DUP3 ADD PUSH2 0xC33 JUMPI PUSH2 0xC33 PUSH2 0xC0E JUMP JUMPDEST POP PUSH1 0x1 ADD SWAP1 JUMP JUMPDEST PUSH1 0x1F DUP3 GT ISZERO PUSH2 0xC81 JUMPI DUP1 PUSH0 MSTORE PUSH1 0x20 PUSH0 KECCAK256 PUSH1 0x1F DUP5 ADD PUSH1 0x5 SHR DUP2 ADD PUSH1 0x20 DUP6 LT ISZERO PUSH2 0xC5F JUMPI POP DUP1 JUMPDEST PUSH1 0x1F DUP5 ADD PUSH1 0x5 SHR DUP3 ADD SWAP2 POP JUMPDEST DUP2 DUP2 LT ISZERO PUSH2 0xC7E JUMPI PUSH0 DUP2 SSTORE PUSH1 0x1 ADD PUSH2 0xC6B JUMP JUMPDEST POP POP JUMPDEST POP POP POP JUMP JUMPDEST DUP2 MLOAD PUSH8 0xFFFFFFFFFFFFFFFF DUP2 GT ISZERO PUSH2 0xCA0 JUMPI PUSH2 0xCA0 PUSH2 0x9E9 JUMP JUMPDEST PUSH2 0xCB4 DUP2 PUSH2 0xCAE DUP5 SLOAD PUSH2 0xBD6 JUMP JUMPDEST DUP5 PUSH2 0xC3A JUMP JUMPDEST PUSH1 0x20 PUSH1 0x1F DUP3 GT PUSH1 0x1 DUP2 EQ PUSH2 0xCE6 JUMPI PUSH0 DUP4 ISZERO PUSH2 0xCCF JUMPI POP DUP5 DUP3 ADD MLOAD JUMPDEST PUSH0 NOT PUSH1 0x3 DUP6 SWAP1 SHL SHR NOT AND PUSH1 0x1 DUP5 SWAP1 SHL OR DUP5 SSTORE PUSH2 0xC7E JUMP JUMPDEST PUSH0 DUP5 DUP2 MSTORE PUSH1 0x20 DUP2 KECCAK256 PUSH1 0x1F NOT DUP6 AND SWAP2 JUMPDEST DUP3 DUP2 LT ISZERO PUSH2 0xD15 JUMPI DUP8 DUP6 ADD MLOAD DUP3 SSTORE PUSH1 0x20 SWAP5 DUP6 ADD SWAP5 PUSH1 0x1 SWAP1 SWAP3 ADD SWAP2 ADD PUSH2 0xCF5 JUMP JUMPDEST POP DUP5 DUP3 LT ISZERO PUSH2 0xD32 JUMPI DUP7 DUP5 ADD MLOAD PUSH0 NOT PUSH1 0x3 DUP8 SWAP1 SHL PUSH1 0xF8 AND SHR NOT AND DUP2 SSTORE JUMPDEST POP POP POP POP PUSH1 0x1 SWAP1 DUP2 SHL ADD SWAP1 SSTORE POP JUMP JUMPDEST DUP1 DUP3 MUL DUP2 ISZERO DUP3 DUP3 DIV DUP5 EQ OR PUSH2 0xD58 JUMPI PUSH2 0xD58 PUSH2 0xC0E JUMP JUMPDEST SWAP3 SWAP2 POP POP JUMP JUMPDEST DUP1 DUP3 ADD DUP1 DUP3 GT ISZERO PUSH2 0xD58 JUMPI PUSH2 0xD58 PUSH2 0xC0E JUMP JUMPDEST DUP4 DUP2 MSTORE PUSH1 0x60 PUSH1 0x20 DUP3 ADD MSTORE PUSH0 PUSH2 0xD89 PUSH1 0x60 DUP4 ADD DUP6 PUSH2 0x904 JUMP JUMPDEST SWAP1 POP DUP3 PUSH1 0x40 DUP4 ADD MSTORE SWAP5 SWAP4 POP POP POP POP JUMP INVALID LOG2 PUSH5 0x6970667358 0x22 SLT KECCAK256 PUSH1 0x88 0xDA SAR PUSH26 0xED5AE1A2CB4BCAAA11EE19F58CDDE3AA3FB4BD6AC2EBBE9F72A2 0xBF PUSH5 0x736F6C6343 STOP ADDMOD 0x1E STOP CALLER "
				},
				"gasEstimates": {
					"creation": {
						"codeDepositCost": "707000",
						"executionCost": "5743",
						"totalCost": "712743"
					},
					"external": {
						"createPoll(string,string[],uint256)": "infinite",
						"getPollDetails(uint256)": "infinite",
						"getVoteCounts(uint256)": "infinite",
						"getWinningOption(uint256)": "infinite",
						"pollCount()": "2293",
						"vote(uint256,uint256)": "57610"
					}
				},
				"methodIdentifiers": {
					"createPoll(string,string[],uint256)": "f8c860f4",
					"getPollDetails(uint256)": "9a0040e4",
					"getVoteCounts(uint256)": "8a241f4c",
					"getWinningOption(uint256)": "a6286870",
					"pollCount()": "9207891d",
					"vote(uint256,uint256)": "b384abef"
				}
			},
			"storageLayout": {
				"storage": [
					{
						"astId": 22,
						"contract": "Pollingsystem.sol:PollingSystem",
						"label": "pollCount",
						"offset": 0,
						"slot": "0",
						"type": "t_uint256"
					},
					{
						"astId": 27,
						"contract": "Pollingsystem.sol:PollingSystem",
						"label": "polls",
						"offset": 0,
						"slot": "1",
						"type": "t_mapping(t_uint256,t_struct(Poll)19_storage)"
					}
				],
				"types": {
					"t_address": {
						"encoding": "inplace",
						"label": "address",
						"numberOfBytes": "20"
					},
					"t_array(t_string_storage)dyn_storage": {
						"base": "t_string_storage",
						"encoding": "dynamic_array",
						"label": "string[]",
						"numberOfBytes": "32"
					},
					"t_bool": {
						"encoding": "inplace",
						"label": "bool",
						"numberOfBytes": "1"
					},
					"t_mapping(t_address,t_bool)": {
						"encoding": "mapping",
						"key": "t_address",
						"label": "mapping(address => bool)",
						"numberOfBytes": "32",
						"value": "t_bool"
					},
					"t_mapping(t_uint256,t_struct(Poll)19_storage)": {
						"encoding": "mapping",
						"key": "t_uint256",
						"label": "mapping(uint256 => struct PollingSystem.Poll)",
						"numberOfBytes": "32",
						"value": "t_struct(Poll)19_storage"
					},
					"t_mapping(t_uint256,t_uint256)": {
						"encoding": "mapping",
						"key": "t_uint256",
						"label": "mapping(uint256 => uint256)",
						"numberOfBytes": "32",
						"value": "t_uint256"
					},
					"t_string_storage": {
						"encoding": "bytes",
						"label": "string",
						"numberOfBytes": "32"
					},
					"t_struct(Poll)19_storage": {
						"encoding": "inplace",
						"label": "struct PollingSystem.Poll",
						"members": [
							{
								"astId": 3,
								"contract": "Pollingsystem.sol:PollingSystem",
								"label": "title",
								"offset": 0,
								"slot": "0",
								"type": "t_string_storage"
							},
							{
								"astId": 6,
								"contract": "Pollingsystem.sol:PollingSystem",
								"label": "options",
								"offset": 0,
								"slot": "1",
								"type": "t_array(t_string_storage)dyn_storage"
							},
							{
								"astId": 8,
								"contract": "Pollingsystem.sol:PollingSystem",
								"label": "endTime",
								"offset": 0,
								"slot": "2",
								"type": "t_uint256"
							},
							{
								"astId": 12,
								"contract": "Pollingsystem.sol:PollingSystem",
								"label": "voteCount",
								"offset": 0,
								"slot": "3",
								"type": "t_mapping(t_uint256,t_uint256)"
							},
							{
								"astId": 16,
								"contract": "Pollingsystem.sol:PollingSystem",
								"label": "hasVoted",
								"offset": 0,
								"slot": "4",
								"type": "t_mapping(t_address,t_bool)"
							},
							{
								"astId": 18,
								"contract": "Pollingsystem.sol:PollingSystem",
								"label": "exists",
								"offset": 0,
								"slot": "5",
								"type": "t_bool"
							}
						],
						"numberOfBytes": "192"
					},
					"t_uint256": {
						"encoding": "inplace",
						"label": "uint256",
						"numberOfBytes": "32"
					}
				}
			},
			"userdoc": {
				"kind": "user",
				"methods": {},
				"version": 1
			}
		}
	}
}